:020000040000FA
:0600000000F017EF00F014
:10000800FFFF6882D9CF0CF0DACF0DF0EDEC0FF0DE
:10001800C1EC0AF038EC0EF00DC0DAFF0CC0D9FFC5
:1000280068921100FFFF5AEF0BF0FFFF000E1A6EE7
:1000380014C0D9FF15C0DAFFDE50DE10D8A409D0ED
:100048000EC0D9FF0FC0DAFF7B0EDF6E010E1A6EED
:1000580025D0FFFF14C0D9FF15C0DAFFDECF16F098
:10006800DDCF17F016500E24D96E17500F20DA6E18
:100078002C0EDF6E14C0D9FF15C0DAFFDECF16F0E4
:10008800DDCF17F0010E1626000E172214C0D9FF77
:1000980015C0DAFF16C0DEFF17C0DDFFFFFF14C072
:1000A800D9FF15C0DAFFDECF16F0DDCF17F01A50F2
:1000B8000E24186E000E0F20196E16501824D96ED3
:1000C80017501920DA6E220EDF6E1FD0FFFF10C006
:1000D800F6FF11C0F7FF14C0D9FF15C0DAFFDECF55
:1000E80016F0DDCF17F01A500E24186E000E0F20F0
:1000F800196E16501824D96E17501920DA6E080098
:10010800FFFFF5CFDFFF104A112AFFFF14C0D9FF08
:1001180015C0DAFFDECF16F0DDCF17F0010E162678
:10012800000E172214C0D9FF15C0DAFF16C0DEFF73
:1001380017C0DDFF10C0F6FF11C0F7FF0800FFFF72
:10014800F5500009D8A4C2D714C0D9FF15C0DAFFEA
:10015800DECF16F0DDCF17F01A500E24186E000E01
:100168000F20196E16501824D96E17501920DA6E00
:10017800220EDF6E14C0D9FF15C0DAFFDECF16F0ED
:10018800DDCF17F0010E1626000E172214C0D9FF76
:1001980015C0DAFF16C0DEFF17C0DDFF1A50D8B44D
:1001A80025D014C0D9FF15C0DAFFDECF16F0DDCF99
:1001B80017F0010E1626000E172214C0D9FF15C01D
:1001C800DAFF16C0DEFF17C0DDFF14C0D9FF15C067
:1001D800DAFFDECF16F0DDCF17F016500E24D96EF9
:1001E80017500F20DA6E3A0EDF6E46D0FFFF14C0AC
:1001F800D9FF15C0DAFFDECF16F0DDCF17F01650A5
:100208000E24D96E17500F20DA6E3A0EDF6E1FD00B
:10021800FFFF12C0F6FF13C0F7FF14C0D9FF15C0C7
:10022800DAFFDECF16F0DDCF17F01A500E24186E65
:10023800000E0F20196E16501824D96E1750192069
:10024800DA6E0800FFFFF5CFDFFF124A132AFFFF1F
:1002580014C0D9FF15C0DAFFDECF16F0DDCF17F0D6
:10026800010E1626000E172214C0D9FF15C0DAFF9A
:1002780016C0DEFF17C0DDFFFFFF12C0F6FF13C078
:10028800F7FF0800FFFFF5500009D8A4C1D71A509E
:10029800D8B414D014C0D9FF15C0DAFFDECF16F0D9
:1002A800DDCF17F0010E1626000E172214C0D9FF55
:1002B80015C0DAFF16C0DEFF17C0DDFFFFFF14C050
:1002C800D9FF15C0DAFFDECF16F0DDCF17F01650D4
:1002D8000E24D96E17500F20DA6E7D0EDF6E14C013
:1002E800D9FF15C0DAFFDECF16F0DDCF17F00EC04C
:1002F80018F00FC019F01650182617501922010EC1
:100308001824D96E000E1920DA6E000EDF6E120066
:10031800FFFFFFFF415017E13E04E00E3F58040E77
:100328004058D8B00FD045500EE14204E00E435873
:10033800040E4458D8B006D042504310441045101B
:10034800D8A403D0FFFF010E21D1FFFF20EEC5F096
:100358001D0EDE6AE806FDE2C50E246E000E256E4F
:10036800DA0E266E7C0E276E3EC028F03FC029F0BC
:1003780040C02AF041C02BF042C02CF043C02DF001
:1003880044C02EF045C02FF0CDEC02F08DEC10F0FB
:10039800C50E0F6E000E106EABEC0DF082EC10F077
:1003A8000EC0E7F00FC0E8F010C0E9F011C0EAF0A5
:1003B8001DD0FFFF82EC10F00001E7510E5C4A6E81
:1003C800E8510F584B6EE95110584C6EEA511158CC
:1003D8004D6E4A50645C4B5065584C5066584D50B1
:1003E8006758D8B003D0FFFF050ED0D0FFFF24EC2C
:1003F80010F0145004E1100E135CD8A0DAD7C50E23
:10040800176E000E186E27EC09F017C0EBF018C035
:10041800ECF00001ECBFE7D72B0EC519D8A492D099
:10042800480EC619D8A48ED0C50EEB25D96EDA6A47
:10043800000EDA22000EDF6EC50E1A6E000E1B6E5D
:100448000B0E1C6EEB051D6EBDEC07F01A504A6EC4
:100458001B504B6E4C6A4D6A46C0D9FF47C0DAFF45
:100468004AC0DEFF4BC0DEFF4CC0DEFF4DC0DEFFE2
:1004780046C0D9FF47C0DAFFDECFE3F0DECFE4F0B5
:10048800DECFE5F0DECFE6F017D0FFFF24EC10F06A
:1004980013501410D8B409D033EC0FF03CC0D9FF76
:1004A8003DC0DAFFDF6E3C4A3D2AFFFF3CC0D9FF62
:1004B8003DC0DAFF000EDF6EFFFF0001E307000E0C
:1004C800E45BE55BE65BE329E0E1E429DEE1E529BD
:1004D800DCE1E629D8A4D9D782EC10F00EC0E7F009
:1004E8000FC0E8F010C0E9F011C0EAF01AD0FFFF21
:1004F80082EC10F00001E7510E5C4A6EE8510F588B
:100508004B6EE95110584C6EEA5111584D6E4A50D5
:10051800645C4B5065584C5066584D506758D8A08D
:1005280062D7FFFF24EC10F0145004E1060E135CB0
:10053800D8A0DDD7020ECAEC0FF04F0AD8A402D714
:10054800000E24D0FFFF2B0EC519D8A4FBD6450EEC
:10055800C819D8A4F7D6C50EEB25D96EDA6A000EED
:10056800DA22000EDF6EC50E1A6E000E1B6E0C0E20
:100578001C6EEB051D6EBDEC07F048C0D9FF49C0E5
:10058800DAFF1AC0DEFF1BC0DDFF020EFFFF1200FC
:10059800FFFFFFFF280E396E000E3A6E14D1FFFFE1
:1005A800250E3B18D8B409D024C0D9FF25C0DAFFDE
:1005B8003BC0DFFF244A252A06D1FFFF000E386E14
:1005C80006D0FFFF388803D0FFFF388C1CD0FFFF10
:1005D80026C0F6FF27C0F7FF264A272A0800FFFF94
:1005E800F5CF3BF03B50000AD8B4FBD0640AD8B42E
:1005F8000AD00D0AD8B407D0050AD8B4E2D7190A28
:10060800D8B4E2D7E0D0FFFF38BC30D038A80ED03D
:1006180039C0D9FF3AC0DAFFDECF34F0DECF35F08B
:10062800DECF36F0DECF37F0040E0FD0FFFF39C033
:10063800D9FF3AC0DAFFDECF34F0DDCF35F0000E57
:1006480035BEFF0E366E376E020EFFFF3926000EDE
:100658003A2237AE30D0030E3812371E361E351EFA
:10066800346C000E35223622372225D0FFFF38A8F9
:100678000ED039C0D9FF3AC0DAFFDECF34F0DECF72
:1006880035F0DECF36F0DECF37F0040E10D0FFFFA6
:1006980039C0D9FF3AC0DAFFDECF30F0DDCF31F014
:1006A80030C034F031C035F0366A376A020EFFFFC9
:1006B8003926000E3A22FFFF010E3B6EFFFF3B502A
:1006C800040D8F0EF324F66E790EF420F76E0900F0
:1006D800FFFFF550345C0900FFFFF550355809005D
:1006E800FFFFF55036580900FFFFF5503758D8A0DE
:1006F80005D03B2A0A0E3B18D8A4E0D7FFFF38C024
:1007080030F0030E3016D8B408D024C0D9FF25C065
:10071800DAFF2D0EDF6E244A252AFFFF3BC032F098
:10072800336A48D0FFFF32C030F033C031F0D89080
:1007380030363136D890303631368F0E3024F66E5A
:10074800790E3120F76E0900FFFFF5CF12F009008E
:10075800FFFFF5CF13F00900FFFFF5CF14F00A00F3
:10076800FFFFF5CF15F034C00EF035C00FF036C0DE
:1007780010F037C011F012EC0BF00EC01BF00FC0D8
:100788001CF010C01DF011C01EF00A0E1F6E000EE6
:10079800206E000E216E000E226E62EC0CF01B50D3
:1007A800300F3B6E24C0D9FF25C0DAFF3BC0DFFF06
:1007B800244A252AFFFF3206D8A033063228B2E1A0
:1007C8003328D8A4AFD7FFFF26C0F6FF27C0F7FF0E
:1007D800264A272A0800FFFFF5CF3BF03B50D8A454
:1007E800DED6FFFF24C0D9FF25C0DAFF000EDF6E7A
:1007F8001200FFFFFFFF0001E76F030E0001E7652E
:1008080003D0FFFF010E04D1FFFF20EEC5F01D0E3F
:10081800DE6AE806FDE2C50E246E000E256E670E40
:10082800266E7D0E276EE7C046F0030E461646502C
:10083800286E296ACDEC02F08DEC10F0C50E0F6E13
:10084800000E106EABEC0DF082EC10F00EC0E8F06C
:100858000FC0E9F010C0EAF011C0EBF01DD0FFFFA7
:1008680082EC10F00001E8510E5C466EE9510F5819
:10087800476EEA511058486EEB511158496E465070
:10088800645C475065584850665849506758D8B016
:1008980003D0FFFF050EBCD0FFFF24EC10F014506E
:1008A80004E1060E135CD8A0DAD7C50E176E000E49
:1008B800186E27EC09F017C0ECF018C0EDF0000135
:1008C800EDBFE7D74F0EC519D8A482D0880E4024B3
:1008D800E36F130E4120E46F000E4220E56F000E17
:1008E8004320E66F82EC10F00EC0E8F00FC0E9F08C
:1008F80010C0EAF011C0EBF01AD0FFFF82EC10F044
:100908000001E8510E5C466EE9510F58476EEA51F6
:100918001058486EEB511158496E4650E35D4750E8
:10092800E4594850E5594950E659D8A0B2D7FFFFD5
:1009380024EC10F0145004E1180E135CD8A0DDD795
:10094800C50E176E000E186E27EC09F017C0ECF0F4
:1009580018C0EDF02B0E0001C519D8A452D7C50E4A
:10096800EC25D96EDA6A000EDA22000EDF6EC50EAB
:100978001A6E000E1B6E0F0E1C6E110E1D6EBDEC56
:1009880007F03CC0D9FF3DC0DAFF1AC0DEFF1BC02C
:10099800DDFFC50E1A6E000E1B6E130E1C6E0001D5
:1009A800EC051D6EBDEC07F01A50466E1B50476EE5
:1009B800486A496A3EC0D9FF3FC0DAFF46C0DEFF39
:1009C80047C0DEFF48C0DEFF49C0DEFF000E20D072
:1009D800FFFF2B0EC519D8A414D7C50EEC25D96E68
:1009E800DA6A000EDA22000EDF6EC50E1A6E000EED
:1009F8001B6E0C0E1C6EEC051D6EBDEC07F044C0A2
:100A0800D9FF45C0DAFF1AC0DEFF1BC0DDFF020EAA
:100A1800FFFF1200FFFFFFFF3CC00EF03DC00FF0CC
:100A28005AEC0FF00EC0E3F00FC0E4F00001E56BE4
:100A3800E66B415006E13E04E00E3F58040E405874
:100A4800D8B0EBD0E65106E1E305E00EE459040E18
:100A5800E559D8B0E2D04550441006E1E80E425CB2
:100A6800030E4358D8A0D9D0455009E1C10E425CC5
:100A7800D40E4358010E4458D8B0CFD001D0CDD0B1
:100A8800FFFF20EEC5F01D0EDE6AE806FDE2C50E8A
:100A9800246E000E256EC50E266E7C0E276E3EC097
:100AA80028F03FC029F040C02AF041C02BF042C0D6
:100AB8002CF043C02DF044C02EF045C02FF0CDECF3
:100AC80002F08DEC10F0C50E0F6E000E106EABEC40
:100AD8000DF082EC10F00EC0E7F00FC0E8F010C087
:100AE800E9F011C0EAF01AD0FFFF82EC10F0000123
:100AF800E7510E5C486EE8510F58496EE95110589D
:100B08004A6EEA5111584B6E4850645C495065581A
:100B18004A5066584B506758D8A07FD0FFFF24EC46
:100B280010F0145004E1060E135CD8A0DDD7C50EF2
:100B3800176E000E186E27EC09F017C0EBF018C0FE
:100B4800ECF00001ECBF69D0440EC519D8A43ED022
:100B58008DEC10F03CC00EF03DC00FF03EC010F020
:100B68003FC011F00BEC10F082EC10F00EC0E7F073
:100B78000FC0E8F010C0E9F011C0EAF01AD0FFFF8A
:100B880082EC10F00001E7510E5C486EE8510F58F6
:100B9800496EE95110584A6EEA5111584B6E485047
:100BA800645C495065584A5066584B506758D8A0FD
:100BB80034D0FFFF24EC10F0145004E1060E135C4F
:100BC800D8A0DDD7020ECAEC0FF027D0FFFF4F0EDA
:100BD800C519D8B422D0450EC519D8B41ED02B0ECD
:100BE800C519D8A41AD0C50EEB25D96EDA6A000E3D
:100BF800DA22000EDF6EC50E1A6E000E1B6E0C0E8A
:100C08001C6EEB051D6EBDEC07F046C0D9FF47C052
:100C1800DAFF1AC0DEFF1BC0DDFFFFFF1200FFFF77
:100C2800FFFF98EC10F0800E3C6E250E3D6E000E16
:100C38003E6E000E3F6E88EC08F00009D8A4C3D0C1
:100C4800040E116E7D0E126E7BEC0DF0730E116E9C
:100C58007B0E126E7BEC0DF0E00E206E7F0E216E87
:100C6800010E0FEC0DF00009D8A4ADD06B0E206E6C
:100C78007F0E216E010E45EC0DF00009D8A4A3D01B
:100C8800010EA5EC0FF00009D8A49DD0B40E116E8A
:100C98007F0E126E7BEC0DF0C50E2A6E000E2B6EC9
:100CA800010E40EC0AF0540E116E7B0E126E7BECB6
:100CB8000DF0C50E116E000E126E7BEC0DF0310EAC
:100CC800116E7B0E126E7BEC0DF0340E116E7B0EE6
:100CD800126E7BEC0DF0D90E4E6E000E4F6E65EC69
:100CE80010F00009D8A46FD0B80E4E6E790E4F6E72
:100CF800D90E506E000E516E8FEC0EF00009D8A47C
:100D080062D09C0E4E6E7D0E4F6ED90E506E000E48
:100D1800516EB9EC0EF00009D8A455D0B40E116E7E
:100D28007F0E126E7BEC0DF08C0E0E6E020E0F6EA7
:100D3800AE0E106E7C0E116EF30E126E7F0E136ED9
:100D4800620E146E000E156E19EC00F08C0E0E6E0D
:100D5800020E0F6EE90E106E7F0E116EDB0E126E14
:100D68007F0E136E620E146E000E156E19EC00F0F5
:100D78008C0E0E6E020E0F6E2D0E106E7D0E116E05
:100D8800F90E126E7F0E136E620E146E000E156E43
:100D980019EC00F08C0E0E6E020E0F6EEB0E106E3C
:100DA8007D0E116EF60E126E7F0E136E620E146EAD
:100DB800000E156E19EC00F0CF0E116E7A0E126E41
:100DC8007BEC0DF007D0FFFF140E116E7B0E126E38
:100DD8007BEC0DF0FFFF1200FFFFFFFF000E01018B
:100DE800F06F000EF26F000EF16F000EF46F000E40
:100DF800F36F000EF56F000EF66F000EF76F000E22
:100E0800F86F3DEC10F00009D8B405D080EC0FF075
:100E180014500101F06FFFFF310E0101F019D8A441
:100E2800A5D0F20E116E7A0E126E7BEC0DF08C0EC0
:100E38003C6E020E3D6E010E62244E6E000E632063
:100E48004F6E4EC03EF04FC03FF0406A416A880E78
:100E5800426E130E436E000E446E000E456EF30E86
:100E6800466E010E476E0FEC05F0F10E3C6E010E5A
:100E78003D6EF50E3E6E010E3F6E100E406E270E53
:100E8800416E000E426E000E436EF30E446E010E6C
:100E9800456E010EFEEC03F00009D8A460D0BE0E2A
:100EA8003C6E010E3D6E000E3E6E000E3F6E000E53
:100EB800406E000E416EF5C142F0F6C143F0F7C135
:100EC80044F0F8C145F0F50E466E010E476EF30E7C
:100ED800486E010E496E8DEC01F00009D8A446D089
:100EE800DC0E246E010E256E7F0E266E7C0E276E9C
:100EF800F1C128F0F2C129F0CDEC02F0DC0E116E40
:100F0800010E126E7BEC0DF0DC0E246E010E256EC8
:100F1800E70E266E7B0E276EF5C128F0F6C129F084
:100F2800F7C12AF0F8C12BF0CDEC02F0DC0E116EFF
:100F3800010E126E7BEC0DF0C30E116E7F0E126E59
:100F48007BEC0DF0DC0E116E010E126E7BEC0DF0D9
:100F5800310E116E7B0E126E7BEC0DF007D0FFFF89
:100F68008B0E116E7D0E126E7BEC0DF0FFFF1200E2
:100F7800FFFFFFFF000E236E000E246E000E256E8D
:100F8800000E266E010E296E000E2A6E000E2B6EC4
:100F9800000E2C6E000E286E1CC02DF095D0FFFFA1
:100FA8002D501A24D96E000E1B20DA6E2F0EDF6426
:100FB80072D02D501A24D96E000E1B20DA6E3A0E0C
:100FC800DF6069D0010E286E000E276E1CD0FFFF6F
:100FD80029C00EF02AC00FF02BC010F02CC011F061
:100FE8000A0E126E000E136E000E146E000E156EB1
:100FF800DBEC0DF00EC029F00FC02AF010C02BF06A
:1010080011C02CF0272AFFFF2D501DC01EF01F6AAB
:101018001E5E000E1F5A2750206E216A1E50205C4B
:101028002150800A226E1F50800A2258D8A0CFD79C
:101038002D501A24D96E000E1B20DA6E2F0EDF6495
:101048002AD02D501A24D96E000E1B20DA6E3A0EC3
:10105800DF6021D02D501A24D96E000E1B20DA6EC5
:10106800DF501E6ED00E1E261E500E6E0F6A106ABE
:10107800116A29C012F02AC013F02BC014F02CC03A
:1010880015F0DBEC0DF00E5023260F5024221050E3
:10109800252211502622FFFF010E296E000E2A6E0E
:1010A800000E2B6E000E2C6E2850D8A409D0000E0E
:1010B8001A6E000E1B6E000E1C6E000E1D6E21D0E7
:1010C800FFFF000E286E2D2AFFFF1D501E6E1F6A9F
:1010D800010E1E26000E1F222D50206E216A1E5062
:1010E800205C2150800A226E1F50800A2258D8A006
:1010F80056D723C01AF024C01BF025C01CF026C008
:101108001DF0FFFF1200FFFFFFFF3CC01BF03DC0BA
:101118001CF03EC01DF03FC01EF09CEC0CF0880E89
:101128000E6E130E0F6E000E106E000E116ED6ECC2
:101138000CF08DEC10F0E50E0F6E7F0E106EABEC20
:101148000DF0F40E0E6E010E0F6E000E106E000EF6
:10115800116ED6EC0CF024EC10F013C04FF014C054
:1011680050F0505008E1060E4F5CD8B004D066D05D
:10117800FFFF33EC0FF0FFFF24EC10F0060E1318FE
:101188001410D8A4F5D7020ECAEC0FF04F0AD8A451
:1011980055D0CA0E0F6E7F0E106EABEC0DF0F40E2C
:1011A8000E6E010E0F6E000E106E000E116ED6EC54
:1011B8000CF0400E246E000E256E7A0E266E7E0E02
:1011C800276E3CC028F03DC029F03EC02AF03FC041
:1011D8002BF0CDEC02F08DEC10F0400E0F6E000EEF
:1011E800106EABEC0DF0F40E0E6E010E0F6E000ECD
:1011F800106E000E116ED6EC0CF0020ECAEC0FF059
:10120800516E4F0E5118D8A412D0D00E0F6E7F0E0B
:10121800106EABEC0DF0640E0E6E000E0F6E000E2D
:10122800106E000E116ED6EC0CF0000E09D0FFFF08
:10123800450E5118D8A402D0040E02D0FFFF050EA7
:10124800FFFF1200FFFFFFFF000E1F6E24EC10F0DF
:1012580013C01DF014C01EF01E5004E1060E1D5CE4
:10126800D8A081D033EC0FF0246E0D0E2418D8A42A
:101278007AD033EC0FF0246E0A0E2418D8A473D059
:1012880082EC10F00EC020F00FC021F010C022F048
:1012980011C023F035D0FFFF2428D8B413D017C0CD
:1012A800D9FF18C0DAFF24C0DFFF174A182A1F2AFF
:1012B80082EC10F00EC020F00FC021F010C022F018
:1012C80011C023F0FFFF82EC10F020500E5C196E65
:1012D80021500F581A6E225010581B6E2350115867
:1012E8001C6E1C501B1006E1D10E195C070E1A5813
:1012F800D8A006D0FFFF8DEC10F01768186837D01B
:10130800FFFF33EC0FF0246E0D0E2418D8A4C3D7BA
:1013180082EC10F00EC020F00FC021F010C022F0B7
:1013280011C023F018D0FFFF82EC10F020500E5CA3
:10133800196E21500F581A6E225010581B6E2350E8
:1013480011581C6E1C501B10D6E1D10E195C070EEB
:101358001A58D8B0CFD7FFFF33EC0FF0246E0A0E1F
:101368002418D8A4E0D7FFFF1FC017F0186AFFFFA2
:101378001200FFFFFFFF82EC10F00EC048F00FC014
:1013880049F010C04AF011C04BF01CD0FFFF82ECAE
:1013980010F048500E5C306E49500F58316E4A506C
:1013A8001058326E4B501158336E3050645C3150C7
:1013B80065583250665833506758D8B003D0FFFF8D
:1013C800050E57D0FFFF24EC10F0145004E1060E70
:1013D800135CD8A0DBD720EE34F0130EDE6AE806E3
:1013E800FDE2340E176E000E186E27EC09F017C0D8
:1013F8004CF018C04DF04DBEE2D74F0E3418D8A4AB
:1014080002D0000E36D0FFFF450E3418D8A402D003
:10141800010E2FD0FFFF2B0E3418D8A41AD0340E8B
:101428004C24D96EDA6A000EDA22000EDF6E340E12
:101438001A6E000E1B6E0C0E1C6E4C041D6EBDEC5D
:1014480007F02EC0D9FF2FC0DAFF1AC0DEFF1BC07D
:10145800DDFFFFFF450E3718D8A402D0020E09D0D1
:10146800FFFF530E3718D8A402D0030E02D0FFFF97
:10147800090EFFFF1200FFFFFFFF536E5350D8B451
:1014880079D08DEC10F0C20E0F6E7E0E106EABECA4
:101498000DF05350030B300FACEC10F00D0EACEC0C
:1014A80010F082EC10F00EC04EF00FC04FF010C0DC
:1014B80050F011C051F019D0FFFF82EC10F04E50DF
:1014C8000E5C2C6E4F500F582D6E505010582E6ECB
:1014D800515011582F6E2C50645C2D5065582E5069
:1014E80066582F506758D8A045D0FFFF24EC10F05D
:1014F800145004E1190E135CD8A0DED7300E256E07
:10150800000E266E0AEC0EF0526E5250D8A432D05D
:10151800300E0E6E000E0F6E5AEC0FF00E04546E65
:101528000D0E556E16D0FFFF300E5524D96EDA6AAF
:10153800000EDA2255502A242C6E000E2B202D6E18
:10154800F30E2C24E16EFF0E2D20E26EDFCFE7FFB5
:10155800552AFFFF5450555CD8A0E5D754C02CF04D
:10156800F30E2C262C502A24D96E000E2B20DA6E6E
:10157800000EDF6EFFFF1200FFFFFFFFF2B2F2A8BE
:1015880049D0000E096E81B045D0340EFFFFE82E19
:10159800FDD7000E0B6EFFFF650EFFFFE82EFDD78F
:1015A80081A00ED00BC007F0010E086E072A03D0E9
:1015B800FFFFD8900836FFFF072EFAD70850091208
:1015C800FFFF0B2A070E0B64E6D7010E6024016E9D
:1015D800026A000E0222000E046E640E036EE1EC35
:1015E8000BF001500A6E61500A18D8B40BD0000EE7
:1015F8006024D96EDA6A020EDA2209C0DFFF0AC057
:1016080060F003D0FFFF0001C481FFFF680EFFFFF9
:10161800E82EFDD7FFFFF2921200FFFFFFFF000E3A
:10162800166E000E176E000E186E000E196E125010
:10163800131014101510D8B42ED0010E1A6E07D03E
:10164800FFFFD89012361336143615361A2AFFFFC4
:1016580015AEF6D7FFFFD890163617361836193656
:1016680012500E5C13500F58145010581550115842
:10167800D8A009D012500E5E13500F5A1450105AA9
:101688001550115A1680FFFFD890153214321332B4
:1016980012321A2EDFD7FFFF16C00EF017C00FF058
:1016A80018C010F019C011F01200FFFF7C0EF66E82
:1016B800210EF76E000EF86E00EEEEF010EE04F05C
:1016C8000900F5CFEEFFE550E150FAE1780EF66E2D
:1016D800210EF76E000EF86E00EE64F010EE04F0C6
:1016E8000900F5CFEEFFE550E150FAE103EE00F016
:1016F800C80EEE6AE806FDE102EE00F0F00EEE6AB2
:10170800E806FDE101EE00F0DC0EEE6AE806FDE118
:1017180000EE80F0450EEE6AE806FDE100EE56F0B8
:101728000E0EEE6AE806FDE168906892000EF86E0B
:101738000001B5EF10F0FFFF000E136E0FAE06D0DC
:101748000E6C0F1ED8B00F2A010E136EFFFF11AEDC
:1017580004D0106C111ED8B0112AFFFF10501110C0
:10176800D8B41CD0010E126E05D0FFFFD8901036E9
:101778001136122AFFFF11AEF8D7FFFF10500E5C8A
:1017880011500F58D8A004D010500E5E11500F5AA7
:10179800FFFFD89011321032122EEFD7FFFF1350EF
:1017A800D8B404D00E6C0F1ED8B00F2AFFFF0EC09D
:1017B8000EF00FC00FF01200FFFFFFFF000E066EC5
:1017C80002AE06D0016C021ED8B0022A010E066EC7
:1017D800FFFF04AE04D0036C041ED8B0042AFFFF38
:1017E80003500410D8B41CD0010E056E05D0FFFFBD
:1017F800D89003360436052AFFFF04AEF8D7FFFF5A
:101808000350015C04500258D8A004D00350015E74
:101818000450025AFFFFD89004320332052EEFD746
:10182800FFFF0650D8B404D0016C021ED8B0022ABB
:10183800FFFF01C001F002C002F01200FFFFFFFF2E
:1018480082EC10F00EC01BF00FC01CF010C01DF091
:1018580011C01EF01BD0FFFF82EC10F01B500E5C75
:10186800176E1C500F58186E1D501058196E1E50C8
:1018780011581A6E1750645C1850655819506658FC
:101888001A506758D8B002D0050E15D0FFFF24ECC7
:1018980010F0145004E1060E135CD8A0DCD7020E39
:1018A800CAEC0FF01F6E4F0E1F18D8A402D0000EFE
:1018B80002D0FFFF010EFFFF1200FFFFFFFF1F50C6
:1018C800201021102210D8B428D0010E236E07D082
:1018D800FFFFD8901F36203621362236232AFFFFF5
:1018E80022AEF6D7FFFF1F501B5C20501C5821501A
:1018F8001D5822501E58D8A008D01F501B5E2050DB
:101908001C5A21501D5A22501E5AFFFFD8902232CD
:10191800213220321F32232EE5D7FFFF1BC01BF0D8
:101928001CC01CF01DC01DF01EC01EF01200FFFFE1
:10193800FFFF000E0E6E240E0F6EF40E106E000EDA
:10194800116E1BC01FF01CC020F01DC021F01EC06E
:1019580022F0040EFFFFD8901F362036213622369B
:10196800E82EF8D71FC012F020C013F021C014F0E1
:1019780022C015F012EC0BF0FF0E0E24236EFF0EA2
:101988000F20246EFF0E1020256EFF0E1120266EEC
:101998002350A2EC10F0C00EF2129D8A54EC10F005
:1019A8001200FFFFFFFF56C016F057C017F058C0CF
:1019B80018F059C019F025D0FFFF0E06000E0F5A77
:1019C800105A115A010E1626000E17221822192233
:1019D800FFFF0E500F1010101110D8B412D016506F
:1019E800565C126E17505758136E18505858146E8C
:1019F80019505958156E1250131014101510D8A4F8
:101A0800DBD7FFFF0E500F1010101110D8B41200C2
:101A1800FFFFDED7FFFFFFFF226E2250D8B40CD0A5
:101A280020C00EF021C00FF05AEC0FF00F5004E167
:101A3800050E0E5CD8A003D0FFFF010E1FD0FFFFDC
:101A48008DEC10F0CE0E0F6E7E0E106EABEC0DF01E
:101A58002250030B300FACEC10F0860E0F6E7E0E8A
:101A6800106EABEC0DF020C00FF021C010F0ABEC05
:101A78000DF00D0EACEC10F023EC0CF0FFFF120093
:101A8800FFFFFFFF226E2250D8B40CD020C00EF00A
:101A980021C00FF05AEC0FF00F5004E1410E0E5C1C
:101AA800D8A003D0FFFF010E1FD0FFFF8DEC10F070
:101AB800CE0E0F6E7E0E106EABEC0DF02250030BA7
:101AC800300FACEC10F0AC0E0F6E7F0E106EABEC5E
:101AD8000DF020C00FF021C010F0ABEC0DF00D0E92
:101AE800ACEC10F023EC0CF0FFFF1200FFFFFFFF3F
:101AF80016D0FFFF11C0F6FF12C0F7FFF86A050EF7
:101B0800F76404D00800FFFFF55005D0F6CFE1FFD9
:101B1800F7CFE2FFE75064EC0EF0114A122AFFFFFC
:101B280011C0F6FF12C0F7FFF86A050EF76404D07B
:101B38000800FFFFF55005D0F6CFE1FFF7CFE2FF31
:101B4800E7500009D8B41200FFFFD3D7FFFFFFFF0B
:101B580016D0FFFF0FC0F6FF10C0F7FFF86A050E9A
:101B6800F76404D00800FFFFF55005D0F6CFE1FF79
:101B7800F7CFE2FFE750ACEC10F00F4A102AFFFF56
:101B88000FC0F6FF10C0F7FFF86A050EF76404D01F
:101B98000800FFFFF55005D0F6CFE1FFF7CFE2FFD1
:101BA800E7500009D8B41200FFFFD3D7FFFFFFFFAB
:101BB800000E166E000E176E000E186E000E196ECF
:101BC800FFFF0EA008D012501626135017221450EB
:101BD800182215501922FFFFD890123613361436E2
:101BE8001536D890113210320F320E320E500F10B7
:101BF80010101110D8A4E4D716C00EF017C00FF0BB
:101C080018C010F019C011F01200FFFFFFFF25C027
:101C180017F026C018F027EC09F017C028F018C0F4
:101C280029F029AE02D0050E1CD0FFFF285029103C
:101C3800D8A402D0090E15D0FFFF28502524D96E4C
:101C480029502620DA6E000EDF6E020ECAEC0FF065
:101C5800276E4F0E2718D8A402D0000E02D0FFFF1F
:101C6800080EFFFF1200FFFFFFFF9EAA26D0010EFD
:101C78005A24016E000E5B20026E000E046EC80E20
:101C8800036E0BEC0FF001C007F002C008F05C50C7
:101C9800071804E15D500818D8B40FD076EC10F09E
:101CA800066E000E5A24D96E030E5B20DA6E06C04B
:101CB800DFFF07C05AF008C05BF0FFFF1200FFFF0C
:101CC800FFFF0E6EF2AE02D0010E0F6EFFFFF29E06
:101CD8008A96680EFFFFE82EFDD7000E106EFFFFF4
:101CE8000EA002D08A8602D0FFFF8A96FFFFD89006
:101CF8000E32680EFFFFE82EFDD7102A070E10647B
:101D0800EED78A86680EFFFFE82EFDD70F50D8A4BD
:101D1800F28E1200FFFFFFFF4EC00EF04FC00FF013
:101D28005AEC0FF0F50E0E5C010E0F58D8A002D039
:101D3800010E18D0FFFF8DEC10F0540E0F6E7D0EC3
:101D4800106EABEC0DF04EC00FF04FC010F0ABECC6
:101D58000DF00D0EACEC10F050C02EF051C02FF06D
:101D6800BEEC09F0FFFF1200FFFFFFFF4EC00EF0B0
:101D78004FC00FF05AEC0FF00F5004E1510E0E5CFB
:101D8800D8A002D0010E18D0FFFF8DEC10F0970EEE
:101D98000F6E7C0E106EABEC0DF04EC00FF04FC006
:101DA80010F0ABEC0DF00D0EACEC10F050C02EF0B6
:101DB80051C02FF0BEEC09F0FFFF1200FFFFFFFF3C
:101DC80010501110D8B41CD0010E126E05D0FFFFB0
:101DD800D89010361136122AFFFF11AEF8D7FFFF40
:101DE80010500E5C11500F58D8A004D010500E5E41
:101DF80011500F5AFFFFD89011321032122EEFD720
:101E0800FFFF0EC00EF00FC00FF01200FFFFFFFF24
:101E180003500410D8B41CD0010E056E05D0FFFF86
:101E2800D89003360436052AFFFF04AEF8D7FFFF23
:101E38000350015C04500258D8A004D00350015E3E
:101E48000450025AFFFFD89004320332052EEFD710
:101E5800FFFF01C001F002C002F01200FFFFFFFF08
:101E68005C505A1806E15D505B18D8A402D0FF0EEA
:101E78001AD0FFFF000E5C24D96E030E5D20DA6EC7
:101E8800DF50136E010E5C240E6E000E5D200F6E87
:101E9800000E116EC80E106EE3EC0EF00EC05CF072
:101EA8000FC05DF01350FFFF1200FFFFFFFF0EC0D1
:101EB80010F00FC011F003D0FFFF104A112AFFFFE6
:101EC80010C0F6FF11C0F7FFF86A050EF76404D0DA
:101ED8000800FFFFF55005D0F6CFE1FFF7CFE2FF8E
:101EE800E7500009D8A4E8D70E50105C0E6E0F50CA
:101EF80011580F6E1200FFFFFFFF61506018D8A441
:101F080003D0146815681AD0FFFF000E6124D96E3B
:101F1800DA6A020EDA22DF50166E010E61240E6EA6
:101F28000F6A000E0F22000E116E640E106E9FECE9
:101F38000BF00E50616E16C014F0156AFFFF120008
:101F4800FFFFFFFF206E2050D8A402D0010E1BD047
:101F5800FFFF8DEC10F0AA0E0F6E7E0E106EABEC2C
:101F68000DF02050030B300FACEC10F00D0EACEC64
:101F780010F0080E646E4C0E656E010E666E000E53
:101F8800676E23EC0CF0FFFF1200FFFFFFFF106EDF
:101F980010505C240E6E000E5D200F6E5A500E5CC1
:101FA8005B500F58D8A002D0FF0E10D0FFFF000ED4
:101FB8000E6E030E0F6E10500E26000E0F225C5090
:101FC8000E24D96E5D500F20DA6EDF50FFFF12002D
:101FD800FFFFFFFFF2A418D00001BC51BD11BE11D4
:101FE800BF11D8B405D0BC07000EBD5BBE5BBF5B9C
:101FF800FFFF010E5626000E572258225922F2944E
:102008005EC0D6FF5FC0D7FFFFFF1200FFFFFFFFD4
:102018000BD0FFFFACA2FDD70EC0D9FF0FC0DAFF6F
:10202800DF50AD6E0E4A0F2AFFFF1006D8A011062A
:102038001028EFE11128D8B41200FFFFEAD7FFFFFC
:10204800FFFF5C505A5C156E5D505B58166EC80EEB
:1020580015240E6E000E16200F6E000E116EC80E9F
:10206800106EE3EC0EF00EC013F00FC014F0120067
:10207800FFFFFFFF615060C014F0156A145E000E88
:10208800155A640E14240E6E000E15200F6E000EE5
:10209800116E640E106E9FEC0BF00E501200FFFFD5
:1020A800FFFFFC0E5F6E1A0E5E6EC00EF212810EFE
:1020B800D56E5EC0D6FF5FC0D7FFF294F28A1200D9
:1020C800FFFFFFFF8DEC10F03C0E0F6E7E0E106EC2
:1020D800ABEC0DF04EC02EF04FC02FF0BEEC09F067
:1020E8001200FFFFFFFFAECF01F0AB50ABA202D052
:1020F800AB50AB98FFFF01501200FFFFFFFF56C027
:102108000EF057C00FF058C010F059C011F012006F
:10211800FFFFFFFF000E5D6E000E5C6E000E5B6E33
:10212800000E5A6E1200FFFFFFFF8A869396F19CFD
:10213800D00EF212F28EF2921200FFFFFFFF0E6E27
:10214800240EAC6E900EAB6E0EC0AFFF1200FFFFF8
:10215800FFFF0E6EFFFFACA2FDD70EC0ADFF120051
:10216800FFFFFFFF14EC06F0FFFFF1EC06F0FCD7D1
:0A217800A00F0000D0070000FFFFD9
:10798E0000010000000A00000064000000E803008F
:10799E000010270000A086010040420F008096983C
:1079AE000000E1F50500CA9A3B10687474703A2F16
:1079BE002F6261636B656E642E7468696E676572A3
:1079CE002E696F2F76332F75736572732F4669721A
:1079DE006D77617265456E67696E656572732F644A
:1079EE006576696365732F53494D3830304C2F637C
:1079FE00616C6C6261636B2F646174613F6175745D
:107A0E00686F72697A6174696F6E3D65794A6862F2
:107A1E004763694F694A49557A49314E69497349F5
:107A2E006E523563434936496B705856434A392E68
:107A3E0065794A6C654841694F6A45324F44417ACF
:107A4E004E6A41304E7A4173496D6C6864434936D3
:107A5E004D5459344D444D314D7A49334D43776928
:107A6E00636D39735A534936496E567A5A58496975
:107A7E004C434A31633349694F694A4761584A74E6
:107A8E00643246795A5556755A326C755A5756792C
:107A9E0063794A392E354D5972505653346E4661BC
:107AAE00326B6F7533645632795A503453766F3366
:107ABE004A56315A6A3667414947545675693934C0
:107ACE000053797374656D20496E697469616C69D0
:107ADE007A6174696F6E20636F6D706C6574656426
:107AEE002E0D0D0053656E64696E67206D657373A0
:107AFE0061676520746F207468696E6765722E69A0
:107B0E006F2E2E2E0D0053797374656D20496E699C
:107B1E007469616C697A6174696F6E206661696CF3
:107B2E0065642E0D0D0053657474696E672048549C
:107B3E00545020636F6E66696775726174696F6EFB
:107B4E00732E2E2E0D004265617265722070726F5B
:107B5E0066696C65204163746976617465642C2076
:107B6E0049503A200053657474696E67204950205D
:107B7E00636F6E66696775726174696F6E732E2EB0
:107B8E002E0D0041542B4347514D494E3D25752C2A
:107B9E0025752C25752C25752C25752C25750D0018
:107BAE0041542B4347515245513D25752C25752C7B
:107BBE0025752C25752C25752C25750D0041542BFE
:107BCE0048545450504152413D22425245414B453A
:107BDE004E44222C256C640D0052656365697665F2
:107BEE00642064617461206C656E6774683A202548
:107BFE006C640D0041542B48545450504152413D39
:107C0E002250524F504F5254222C25750D00415484
:107C1E002B48545450504152413D2254494D454FEA
:107C2E005554222C25750D0041542B485454505058
:107C3E004152413D22425245414B222C256C640D4E
:107C4E000041542B48545450504152413D2252450C
:107C5E00444952222C25750D0041542B4854545042
:107C6E00504152413D225553455244415441222CDC
:107C7E00004854545020726573706F6E73652063A4
:107C8E006F64653A2025750D0041542B48545450AD
:107C9E00504152413D22434F4E54454E54222C00EA
:107CAE00456E67696E652054656D70657261747599
:107CBE007265202843290041542B485454504441A6
:107CCE0054413D256C642C256C640D0041542B48A9
:107CDE00545450524541443D256C642C256C640D22
:107CEE000041542B48545450504152413D22505261
:107CFE004F4950222C004D6F64656D20496E69749A
:107D0E0069616C697A65642E0D0D0041542B4347F1
:107D1E00444154413D22505050222C25750D0056A1
:107D2E00656869636C6520537065656420284D50E5
:107D3E0048290041542B48545450504152413D2241
:107D4E00434944222C0041542B4854545050415224
:107D5E00413D2255524C222C0041542B4854545034
:107D6E00414354494F4E3D25750D0041542B485407
:107D7E005450504152413D225541222C0053656EC4
:107D8E0064696E67206661696C65642E0D006170B2
:107D9E00706C69636174696F6E2F6A736F6E0041E8
:107DAE00542B485454505354415455533F0D004195
:107DBE00542B48545450474554484541443D004186
:107DCE00542B53415042523D342C25750D004154D5
:107DDE002B434750414444523D25750D0046756571
:107DEE006C204C6576656C202825290041542B4863
:107DFE0054545053434F4E540D0041542B4346554B
:107E0E004E3D312C310D0041542B4347434C4153D1
:107E1E00533F0D0041542B48545450484541440D96
:107E2E000041542B485454505445524D0D0041546A
:107E3E002B48545450494E49540D002C2250484F53
:107E4E004E454E554D222C0041542B434741545420
:107E5E003D300D0041542B43474154543D310D00EC
:107E6E0041542B4347455245503F0D0041542B4939
:107E7E0050523D256C640D002C22434F4E545950E8
:107E8E0045222C0041542B53415042523D302C0080
:107E9E0041542B43474143543D302C0041542B5306
:107EAE00415042523D312C0041542B4347414354E3
:107EBE003D312C0041542B53415042523D322C0047
:107ECE0041542B53415042523D332C0041542B43CD
:107EDE0047434C4153533D0041542B434744434F7A
:107EEE004E543D0041542B43475245473F0D0041F0
:107EFE00542B4347534D533F0D0041542B434741A1
:107F0E0043543F0D0041542B43474154543F0D0001
:107F1E0041542B4347455245503D0041542B434F4E
:107F2E0050533F0D0041542B43475245473D0041AE
:107F3E00542B4347534D533D0041542B43494D4918
:107F4E000D0041542B434E554D0D002C22524154E1
:107F5E0045222C002C2255534552222C00496E747A
:107F6E0065726E65740041542B474D490D004154A6
:107F7E002B474F490D0041542B474D4D0D00415499
:107F8E002B47534E0D0041542B4353510D0041547A
:107F9E002B474D520D002C22505744222C002C22E0
:107FAE0041504E222C00446F6E652E0D0D002C227A
:107FBE004950222C00446174613A200041544530EE
:107FCE000D00415426570D004154490D00333530F4
:107FDE003000475052530041540D0052504D004353
:107FEE004300434700333000353000333500420044
:017FFE000082
:020000040020DA
:08000000FFFFFFFFFFFFFFFF00
:020000040030CA
:0E000000FF220F0EFF0180FF0FC00FE00F4028
:00000001FF
