:020000040000FA
:0600000000F00BEF00F020
:10000800FFFF7E8284EC0EF07E921100FFFFEFEF7F
:100018000AF0FFFF000E0D6E07C0D9FF08C0DAFF17
:10002800DE50DE10D8A409D001C0D9FF02C0DAFF23
:100038007B0EDF6E010E0D6E25D0FFFF07C0D9FFC6
:1000480008C0DAFFDECF09F0DDCF0AF0095001243D
:10005800D96E0A500220DA6E2C0EDF6E07C0D9FF67
:1000680008C0DAFFDECF09F0DDCF0AF0010E09265D
:10007800000E0A2207C0D9FF08C0DAFF09C0DEFF58
:100088000AC0DDFFFFFF07C0D9FF08C0DAFFDECFD7
:1000980009F0DDCF0AF00D5001240B6E000E02208E
:1000A8000C6E09500B24D96E0A500C20DA6E220E01
:1000B800DF6E1FD0FFFF03C0F6FF04C0F7FF07C0C5
:1000C800D9FF08C0DAFFDECF09F0DDCF0AF00D5006
:1000D80001240B6E000E02200C6E09500B24D96E01
:1000E8000A500C20DA6E0800FFFFF5CFDFFF034A45
:1000F800042AFFFF07C0D9FF08C0DAFFDECF09F0E6
:10010800DDCF0AF0010E0926000E0A2207C0D9FF2A
:1001180008C0DAFF09C0DEFF0AC0DDFF03C0F6FF32
:1001280004C0F7FF0800FFFFF5500009D8A4C2D7A4
:1001380007C0D9FF08C0DAFFDECF09F0DDCF0AF02B
:100148000D5001240B6E000E02200C6E09500B247A
:10015800D96E0A500C20DA6E220EDF6E07C0D9FF66
:1001680008C0DAFFDECF09F0DDCF0AF0010E09265C
:10017800000E0A2207C0D9FF08C0DAFF09C0DEFF57
:100188000AC0DDFF0D50D8B425D007C0D9FF08C07C
:10019800DAFFDECF09F0DDCF0AF0010E0926000EE6
:1001A8000A2207C0D9FF08C0DAFF09C0DEFF0AC06B
:1001B800DDFF07C0D9FF08C0DAFFDECF09F0DDCFC9
:1001C8000AF009500124D96E0A500220DA6E3A0E5C
:1001D800DF6E46D0FFFF07C0D9FF08C0DAFFDECFC9
:1001E80009F0DDCF0AF009500124D96E0A50022027
:1001F800DA6E3A0EDF6E1FD0FFFF05C0F6FF06C0AD
:10020800F7FF07C0D9FF08C0DAFFDECF09F0DDCF5E
:100218000AF00D5001240B6E000E02200C6E0950DE
:100228000B24D96E0A500C20DA6E0800FFFFF5CFB8
:10023800DFFF054A062AFFFF07C0D9FF08C0DAFF1B
:10024800DECF09F0DDCF0AF0010E0926000E0A22E2
:1002580007C0D9FF08C0DAFF09C0DEFF0AC0DDFF0A
:10026800FFFF05C0F6FF06C0F7FF0800FFFFF550C7
:100278000009D8A4C1D70D50D8B414D007C0D9FFED
:1002880008C0DAFFDECF09F0DDCF0AF0010E09263B
:10029800000E0A2207C0D9FF08C0DAFF09C0DEFF36
:1002A8000AC0DDFFFFFF07C0D9FF08C0DAFFDECFB5
:1002B80009F0DDCF0AF009500124D96E0A50022056
:1002C800DA6E7D0EDF6E07C0D9FF08C0DAFFDECF19
:1002D80009F0DDCF0AF001C00BF002C00CF00950A4
:1002E8000B260A500C22010E0B24D96E000E0C208E
:1002F800DA6E000EDF6E1200FFFFFFFF345017E1C9
:100308003104E00E3258040E3358D8B00FD03850AC
:100318000EE13504E00E3658040E3758D8B006D032
:100328003550361037103810D8A403D0FFFF010E0F
:100338001DD1FFFF20EE41F01D0EDE6AE806FDE24A
:10034800410E176E000E186EDA0E196E7C0E1A6EBC
:1003580031C01BF032C01CF033C01DF034C01EF099
:1003680035C01FF036C020F037C021F038C022F069
:10037800BDEC02F018EC0FF0410E026E000E036E99
:10038800C4EC0CF00DEC0FF001C063F002C064F097
:1003980003C065F004C066F01CD0FFFF0DEC0FF041
:1003A8006350015C3D6E645002583E6E65500358C0
:1003B8003F6E66500458406E3D50785C3E50795808
:1003C8003F507A5840507B58D8B003D0FFFF050EF5
:1003D800CDD0FFFFBBEC0EF0075004E1100E065C19
:1003E800D8A0DBD7410E0A6E000E0B6E6AEC08F03F
:1003F8000AC067F00BC068F068BEE8D72B0E41183A
:10040800D8A490D0480E4218D8A48CD0410E6724A6
:10041800D96EDA6A000EDA22000EDF6E410E0D6E1A
:10042800000E0E6E0B0E0F6E6704106E9FEC07F039
:100438000D503D6E0E503E6E3F6A406A39C0D9FF7E
:100448003AC0DAFF3DC0DEFF3EC0DEFF3FC0DEFF40
:1004580040C0DEFF39C0D9FF3AC0DAFFDECF5FF017
:10046800DECF60F0DECF61F0DECF62F017D0FFFFA5
:10047800BBEC0EF006500710D8B409D0CAEC0DF04A
:100488002FC0D9FF30C0DAFFDF6E2F4A302AFFFFB6
:100498002FC0D9FF30C0DAFF000EDF6EFFFF5F0606
:1004A800000E605A615A625A5F28E1E16028DFE174
:1004B8006128DDE16228D8A4DAD70DEC0FF001C07D
:1004C80063F002C064F003C065F004C066F019D0A0
:1004D800FFFF0DEC0FF06350015C3D6E6450025855
:1004E8003E6E655003583F6E66500458406E3D504E
:1004F800785C3E5079583F507A5840507B58D8A085
:1005080065D7FFFFBBEC0EF0075004E1060E065C52
:10051800D8A0DED7020E61EC0EF04F0AD8A406D799
:10052800000E24D0FFFF2B0E4118D8A4FFD6450E8D
:100538004418D8A4FBD6410E6724D96EDA6A000E97
:10054800DA22000EDF6E410E0D6E000E0E6E0C0EDE
:100558000F6E6704106E9FEC07F03BC0D9FF3CC0DC
:10056800DAFF0DC0DEFF0EC0DDFF020EFFFF120036
:10057800FFFFFFFF1B0E2B6E000E2C6E14D1FFFF2A
:10058800250E2E18D8B409D017C0D9FF18C0DAFF25
:100598002EC0DFFF174A182A06D1FFFF000E2D6E66
:1005A80006D0FFFF2D8803D0FFFF2D8C1CD0FFFF46
:1005B80019C0F6FF1AC0F7FF194A1A2A0800FFFFE8
:1005C800F5CF2EF02E50000AD8B4FBD0640AD8B468
:1005D8000AD00D0AD8B407D0050AD8B4E2D7190A48
:1005E800D8B4E2D7E0D0FFFF2DBC30D02DA80ED074
:1005F8002BC0D9FF2CC0DAFFDECF27F0DECF28F0E2
:10060800DECF29F0DECF2AF0040E0FD0FFFF2BC07B
:10061800D9FF2CC0DAFFDECF27F0DDCF28F0000E9F
:1006280028BEFF0E296E2A6E020EFFFF2B26000E33
:100638002C222AAE30D0030E2D122A1E291E281E67
:10064800276C000E282229222A2225D0FFFF2DA858
:100658000ED02BC0D9FF2CC0DAFFDECF27F0DECFBB
:1006680028F0DECF29F0DECF2AF0040E10D0FFFFED
:100678002BC0D9FF2CC0DAFFDECF23F0DDCF24F06A
:1006880023C027F024C028F0296A2A6A020EFFFF37
:100698002B26000E2C22FFFF010E2E6EFFFF2E5080
:1006A800040D8F0EF324F66E790EF420F76E090010
:1006B800FFFFF550275C0900FFFFF5502858090097
:1006C800FFFFF55029580900FFFFF5502A58D8A018
:1006D80005D02E2A0A0E2E18D8A4E0D7FFFF2DC069
:1006E80023F0030E2316D8B408D017C0D9FF18C0BA
:1006F800DAFF2D0EDF6E174A182AFFFF2EC025F0ED
:10070800266A48D0FFFF25C023F026C024F0D890E1
:1007180023362436D890233624368F0E2324F66EBB
:10072800790E2420F76E0900FFFFF5CF05F00900C8
:10073800FFFFF5CF06F00900FFFFF5CF07F00A002D
:10074800FFFFF5CF08F027C001F028C002F029C04C
:1007580003F02AC004F0A7EC0AF001C00EF002C0B2
:100768000FF003C010F004C011F00A0E126E000E54
:10077800136E000E146E000E156EB5EC0BF00E50D5
:10078800300F2E6E17C0D9FF18C0DAFF2EC0DFFF5A
:10079800174A182AFFFF2506D8A026062528B2E101
:1007A8002628D8A4AFD7FFFF19C0F6FF1AC0F7FF55
:1007B800194A1A2A0800FFFFF5CF2EF02E50D8A4A8
:1007C800DED6FFFF17C0D9FF18C0DAFF000EDF6EB4
:1007D8001200FFFFFFFF5F6E030E5F6403D0FFFF91
:1007E800010EFFD0FFFF20EE3DF01D0EDE6AE80689
:1007F800FDE23D0E176E000E186E670E196E7D0E27
:100808001A6E5FC039F0030E391639501B6E1C6A18
:10081800BDEC02F018EC0FF03D0E026E000E036EF8
:10082800C4EC0CF00DEC0FF001C060F002C061F0F8
:1008380003C062F004C063F01CD0FFFF0DEC0FF0A2
:100848006050015C396E615002583A6E625003582C
:100858003B6E635004583C6E3950785C3A50795876
:100868003B507A583C507B58D8B003D0FFFF050E58
:10087800B8D0FFFFBBEC0EF0075004E1060E065C93
:10088800D8A0DBD73D0E0A6E000E0B6E6AEC08F09E
:100898000AC064F00BC065F065BEE8D74F0E3D187E
:1008A800D8A47FD0880E33245B6E130E34205C6E80
:1008B800000E35205D6E000E36205E6E0DEC0FF0DA
:1008C80001C060F002C061F003C062F004C063F0D0
:1008D80019D0FFFF0DEC0FF06050015C396E6150CC
:1008E80002583A6E625003583B6E635004583C6E8F
:1008F80039505B5C3A505C583B505D583C505E58F0
:10090800D8A0B4D7FFFFBBEC0EF0075004E1180ED7
:10091800065CD8A0DED73D0E0A6E000E0B6E6AECA0
:1009280008F00AC064F00BC065F02B0E3D18D8A47F
:1009380056D73D0E6424D96EDA6A000EDA22000E0C
:10094800DF6E3D0E0D6E000E0E6E0F0E0F6E110E49
:10095800106E9FEC07F02FC0D9FF30C0DAFF0DC032
:10096800DEFF0EC0DDFF3D0E0D6E000E0E6E130E87
:100978000F6E6404106E9FEC07F00D50396E0E5028
:100988003A6E3B6A3C6A31C0D9FF32C0DAFF39C0DF
:10099800DEFF3AC0DEFF3BC0DEFF3CC0DEFF000EDC
:1009A80020D0FFFF2B0E3D18D8A419D73D0E642484
:1009B800D96EDA6A000EDA22000EDF6E3D0E0D6E79
:1009C800000E0E6E0C0E0F6E6404106E9FEC07F096
:1009D80037C0D9FF38C0DAFF0DC0DEFF0EC0DDFF1B
:1009E800020EFFFF1200FFFFFFFF2FC001F030C013
:1009F80002F0F1EC0DF001C05DF002C05EF05F6A3C
:100A0800606A345006E13104E00E3258040E33585F
:100A1800D8B0E8D0605006E15D04E00E5E58040EE0
:100A28005F58D8B0DFD03850371006E1E80E355C93
:100A3800030E3658D8A0D6D0385009E1C10E355C1F
:100A4800D40E3658010E3758D8B0CCD001D0CAD001
:100A5800FFFF20EE3FF01D0EDE6AE806FDE23F0EC6
:100A6800176E000E186EC50E196E7C0E1A6E31C008
:100A78001BF032C01CF033C01DF034C01EF035C06E
:100A88001FF036C020F037C021F038C022F0BDEC8E
:100A980002F018EC0FF03F0E026E000E036EC4EC6D
:100AA8000CF00DEC0FF001C061F002C062F003C061
:100AB80063F004C064F019D0FFFF0DEC0FF0615033
:100AC800015C3B6E625002583C6E635003583D6EA9
:100AD800645004583E6E3B50785C3C5079583D5009
:100AE8007A583E507B58D8A07DD0FFFFBBEC0EF063
:100AF800075004E1060E065CD8A0DED73F0E0A6E4A
:100B0800000E0B6E6AEC08F00AC065F00BC066F0C8
:100B180066BE68D0440E3F18D8A43DD018EC0FF03C
:100B28002FC001F030C002F031C003F032C004F031
:100B3800A2EC0EF00DEC0FF001C061F002C062F003
:100B480003C063F004C064F019D0FFFF0DEC0FF090
:100B58006150015C3B6E625002583C6E6350035812
:100B68003D6E645004583E6E3B50785C3C5079585A
:100B78003D507A583E507B58D8A034D0FFFFBBEC8C
:100B88000EF0075004E1060E065CD8A0DED7020E70
:100B980061EC0EF027D0FFFF4F0E3F18D8B422D0DB
:100BA800450E3F18D8B41ED02B0E3F18D8A41AD023
:100BB8003F0E6524D96EDA6A000EDA22000EDF6E67
:100BC8003F0E0D6E000E0E6E0C0E0F6E6504106E4D
:100BD8009FEC07F039C0D9FF3AC0DAFF0DC0DEFF3D
:100BE8000EC0DDFFFFFF1200FFFFFFFFEBEC0EF072
:100BF800670E23EC0FF02DEC0FF004EC0AF000095F
:100C0800D8A4C3D0040E046E7D0E056E94EC0CF0CF
:100C1800730E046E7B0E056E94EC0CF0E00E136EF2
:100C28007F0E146E010E28EC0CF00009D8A4ADD08C
:100C38006B0E136E7F0E146E010E5EEC0CF0000945
:100C4800D8A4A3D0010E3CEC0EF00009D8A49DD086
:100C5800B40E046E7F0E056E94EC0CF0500E246EEC
:100C6800000E256E010E83EC09F0540E046E7B0E07
:100C7800056E94EC0CF0500E046E000E056E94ECAC
:100C88000CF0310E046E7B0E056E94EC0CF0340EF5
:100C9800046E7B0E056E94EC0CF0640E416E000E33
:100CA800426EFCEC0EF00009D8A46FD0B80E416E6D
:100CB800790E426E640E436E000E446E4EEC0DF0DB
:100CC8000009D8A462D09C0E416E7D0E426E640E5F
:100CD800436E000E446E78EC0DF00009D8A455D090
:100CE800B40E046E7F0E056E94EC0CF08C0E016E43
:100CF800020E026EAE0E036E7C0E046EF30E056ECF
:100D08007F0E066E760E076E000E086E0DEC00F074
:100D18008C0E016E020E026EE90E036E7F0E046EDB
:100D2800DB0E056E7F0E066E760E076E000E086EE1
:100D38000DEC00F08C0E016E020E026E2D0E036E8D
:100D48007D0E046EF90E056E7F0E066E760E076E2A
:100D5800000E086E0DEC00F08C0E016E020E026E95
:100D6800EB0E036E7D0E046EF60E056E7F0E066E9C
:100D7800760E076E000E086E0DEC00F0CF0E046EB6
:100D88007A0E056E94EC0CF007D0FFFF140E046E7B
:100D98007B0E056E94EC0CF0FFFF1200FFFFFFFFC7
:100DA800000E0001D86F000EDA6F000ED96F000E2A
:100DB800DC6F000EDB6F000EDD6F000EDE6F000EC5
:100DC800DF6F000EE06FD4EC0EF00009D8B405D048
:100DD80017EC0EF007500001D86FFFFF310E00012D
:100DE800D819D8A4A5D0F20E046E7A0E056E94EC2C
:100DF8000CF08C0E2F6E020E306E010E7624696E8A
:100E0800000E77206A6E69C031F06AC032F0336A2A
:100E1800346A880E356E130E366E000E376E000E6D
:100E2800386EDB0E396E000E3A6EF8EC04F0D90E0F
:100E38002F6E000E306EDD0E316E000E326E100E0B
:100E4800336E270E346E000E356E000E366EDB0ED6
:100E5800376E000E386E010EEEEC03F00009D8A4D0
:100E680060D0BE0E2F6E010E306E000E316E000E79
:100E7800326E000E336E000E346EDDC035F0DEC00B
:100E880036F0DFC037F0E0C038F0DD0E396E000E06
:100E98003A6EDB0E3B6E000E3C6E81EC01F00009F1
:100EA800D8A446D0C40E176E000E186E7F0E196EA9
:100EB8007C0E1A6ED9C01BF0DAC01CF0BDEC02F033
:100EC800C40E046E000E056E94EC0CF0C40E176E82
:100ED800000E186EE70E196E7B0E1A6EDDC01BF041
:100EE800DEC01CF0DFC01DF0E0C01EF0BDEC02F05B
:100EF800C40E046E000E056E94EC0CF0C30E046E66
:100F08007F0E056E94EC0CF0C40E046E000E056E98
:100F180094EC0CF0310E046E7B0E056E94EC0CF024
:100F280007D0FFFF8B0E046E7D0E056E94EC0CF05F
:100F3800FFFF1200FFFFFFFF000E166E000E176E78
:100F4800000E186E000E196E010E1C6E000E1D6E3E
:100F5800000E1E6E000E1F6E000E1B6E0FC020F0DE
:100F680095D0FFFF20500D24D96E000E0E20DA6EAA
:100F78002F0EDF6472D020500D24D96E000E0E2083
:100F8800DA6E3A0EDF6069D0010E1B6E000E1A6E23
:100F98001CD0FFFF1CC001F01DC002F01EC003F0F2
:100FA8001FC004F00A0E056E000E066E000E076ED6
:100FB800000E086EF4EC0CF001C01CF002C01DF02D
:100FC80003C01EF004C01FF01A2AFFFF205010C0F3
:100FD80011F0126A115E000E125A1A50136E146A3A
:100FE8001150135C1450800A156E1250800A15585F
:100FF800D8A0CFD720500D24D96E000E0E20DA6E5F
:101008002F0EDF642AD020500D24D96E000E0E203A
:10101800DA6E3A0EDF6021D020500D24D96E000E12
:101028000E20DA6EDF50116ED00E11261150016EAF
:10103800026A036A046A1CC005F01DC006F01EC0DF
:1010480007F01FC008F0F4EC0CF00150162602500F
:1010580017220350182204501922FFFF010E1C6E9C
:10106800000E1D6E000E1E6E000E1F6E1B50D8A4C3
:1010780009D0000E0D6E000E0E6E000E0F6E000EE3
:10108800106E21D0FFFF000E1B6E202AFFFF1050AC
:10109800116E126A010E1126000E12222050136ED4
:1010A800146A1150135C1450800A156E1250800A8D
:1010B8001558D8A056D716C00DF017C00EF018C096
:1010C8000FF019C010F0FFFF1200FFFFFFFF000E26
:1010D800126EBBEC0EF006C010F007C011F01150F4
:1010E80004E1060E105CD8A081D0CAEC0DF0176E92
:1010F8000D0E1718D8A47AD0CAEC0DF0176E0A0E88
:101108001718D8A473D00DEC0FF001C013F002C06B
:1011180014F003C015F004C016F035D0FFFF1728EF
:10112800D8B413D00AC0D9FF0BC0DAFF17C0DFFF4D
:101138000A4A0B2A122A0DEC0FF001C013F002C064
:1011480014F003C015F004C016F0FFFF0DEC0FF00B
:101158001350015C0C6E145002580D6E1550035854
:101168000E6E165004580F6E0F500E1006E1D10E79
:101178000C5C070E0D58D8A006D0FFFF18EC0FF036
:101188000A680B6837D0FFFFCAEC0DF0176E0D0E1A
:101198001718D8A4C3D70DEC0FF001C013F002C084
:1011A80014F003C015F004C016F018D0FFFF0DECC2
:1011B8000FF01350015C0C6E145002580D6E155050
:1011C80003580E6E165004580F6E0F500E10D6E1CD
:1011D800D10E0C5C070E0D58D8B0CFD7FFFFCAEC64
:1011E8000DF0176E0A0E1718D8A4E0D7FFFF12C02B
:1011F8000AF00B6AFFFF1200FFFFFFFF0DEC0FF074
:1012080001C03BF002C03CF003C03DF004C03EF01A
:101218001CD0FFFF0DEC0FF03B50015C236E3C50DF
:101228000258246E3D500358256E3E500458266ED1
:101238002350785C2450795825507A5826507B588A
:10124800D8B003D0FFFF050E57D0FFFFBBEC0EF060
:10125800075004E1060E065CD8A0DBD720EE27F085
:10126800130EDE6AE806FDE2270E0A6E000E0B6E0C
:101278006AEC08F00AC03FF00BC040F040BEE2D76D
:101288004F0E2718D8A402D0000E36D0FFFF450E07
:101298002718D8A402D0010E2FD0FFFF2B0E271835
:1012A800D8A41AD0270E3F24D96EDA6A000EDA22A3
:1012B800000EDF6E270E0D6E000E0E6E0C0E0F6EFA
:1012C8003F04106E9FEC07F021C0D9FF22C0DAFF5F
:1012D8000DC0DEFF0EC0DDFFFFFF450E2A18D8A4A3
:1012E80002D0020E09D0FFFF530E2A18D8A402D04C
:1012F800030E02D0FFFF080EFFFF1200FFFFFFFFE3
:101308004D6E4D50D8B479D018EC0FF0C20E026E65
:101318007E0E036EC4EC0CF04D50030B300F37EC0F
:101328000FF00D0E37EC0FF00DEC0FF001C048F088
:1013380002C049F003C04AF004C04BF019D0FFFFC7
:101348000DEC0FF04850015C266E49500258276E8C
:101358004A500358286E4B500458296E2650785C22
:101368002750795828507A5829507B58D8A045D00A
:10137800FFFFBBEC0EF0075004E1190E065CD8A085
:10138800DED72A0E186E000E196E58EC0AF04C6E55
:101398004C50D8A432D02A0E016E000E026EF1EC29
:1013A8000DF001044E6E0D0E4F6E16D0FFFF2A0E83
:1013B8004F24D96EDA6A000EDA224F502424266EA2
:1013C800000E2520276EF30E2624E16EFF0E27203F
:1013D800E26EDFCFE7FF4F2AFFFF4E504F5CD8A0E9
:1013E800E5D74EC026F0F30E262626502424D96EC3
:1013F800000E2520DA6E000EDF6EFFFF1200FFFFE1
:10140800FFFF47EC0FF0880E016E130E026E000E00
:10141800036E000E046EEFEC0BF018EC0FF0E50E07
:10142800026E7F0E036EC4EC0CF0F40E016E010E1A
:10143800026E000E036E000E046EEFEC0BF0BBECB8
:101448000EF006C00DF007C00EF00E5008E1060EB3
:101458000D5CD8B004D023D0FFFFCAEC0DF0FFFF1D
:10146800BBEC0EF0060E06180710D8A4F5D7020E2E
:1014780061EC0EF04F0AD8A412D0CA0E026E7F0E8D
:10148800036EC4EC0CF0F40E016E010E026E000E39
:10149800036E000E046EEFEC0BF0000E02D0FFFF9F
:1014A800050EFFFF1200FFFFFFFF18C00AF019C06A
:1014B8000BF06AEC08F00AC022F00BC023F023AE50
:1014C80002D0050E3DD0FFFF22502310D8A403D030
:1014D800FFFF080E35D0FFFF22501824D96E235085
:1014E8001920DA6E000EDF6E0DEC0FF001C01EF051
:1014F80002C01FF003C020F004C021F019D0FFFF84
:101508000DEC0FF01E50015C1A6E1F5002581B6E36
:10151800205003581C6E215004581D6E1A50785CD8
:101528001B5079581C507A581D507B58D8A0D0D7DA
:10153800FFFF020E61EC0EF04F0AD8A4E0D7000EB0
:10154800FFFF1200FFFFFFFF000E096E000E0A6E7C
:10155800000E0B6E000E0C6E0550061007100810DA
:10156800D8B42ED0010E0D6E07D0FFFFD8900536E7
:101578000636073608360D2AFFFF08AEF6D7FFFFF6
:10158800D89009360A360B360C360550015C0650E1
:1015980002580750035808500458D8A009D00550DD
:1015A800015E0650025A0750035A0850045A09802F
:1015B800FFFFD89008320732063205320D2EDFD7EA
:1015C800FFFF09C001F00AC002F00BC003F00CC015
:1015D80004F01200FFFF9E0EF66E1E0EF76E000E50
:1015E800F86E00EEE1F010EE04F00900F5CFEEFF22
:1015F800E550E150FAE19A0EF66E1E0EF76E000EF7
:10160800F86E00EE78F010EE04F00900F5CFEEFF6A
:10161800E550E150FAE103EE00F0C80EEE6AE80684
:10162800FDE102EE00F0F00EEE6AE806FDE101EEE3
:1016380000F0DC0EEE6AE806FDE100EE80F0440EF4
:10164800EE6AE806FDE100EE6BF00D0EEE6AE806C4
:10165800FDE17E907E92000EF86E000140EF0FF0E3
:10166800FFFF000E066E02AE06D0016C021ED8B057
:10167800022A010E066EFFFF04AE04D0036C041E9E
:10168800D8B0042AFFFF03500410D8B41CD0010EB0
:10169800056E05D0FFFFD89003360436052AFFFFF4
:1016A80004AEF8D7FFFF0350015C04500258D8A0DD
:1016B80004D00350015E0450025AFFFFD890043250
:1016C8000332052EEFD7FFFF0650D8B404D0016CC3
:1016D800021ED8B0022AFFFF01C001F002C002F0CA
:1016E8001200FFFFFFFF0DEC0FF001C00EF002C06B
:1016F8000FF003C010F004C011F01BD0FFFF0DEC79
:101708000FF00E50015C0A6E0F5002580B6E10500D
:1017180003580C6E115004580D6E0A50785C0B502B
:1017280079580C507A580D507B58D8B002D0050E15
:1017380015D0FFFFBBEC0EF0075004E1060E065C67
:10174800D8A0DCD7020E61EC0EF0126E4F0E121804
:10175800D8A402D0000E02D0FFFF010EFFFF120036
:10176800FFFFFFFF1250131014101510D8B428D023
:10177800010E166E07D0FFFFD890123613361436B6
:101788001536162AFFFF15AEF6D7FFFF12500E5C6E
:1017980013500F581450105815501158D8A008D08D
:1017A80012500E5E13500F5A1450105A1550115AF9
:1017B800FFFFD8901532143213321232162EE5D7A5
:1017C800FFFF0EC00EF00FC00FF010C010F011C0D8
:1017D80011F01200FFFFFFFF6BC009F06CC00AF0A8
:1017E8006DC00BF06EC00CF025D0FFFF0106000E97
:1017F800025A035A045A010E0926000E0A220B2225
:101808000C22FFFF0150021003100410D8B412D0AC
:1018180009506B5C056E0A506C58066E0B506D587B
:10182800076E0C506E58086E055006100710081009
:10183800D8A4DBD7FFFF0150021003100410D8B45E
:101848001200FFFFDED7FFFFFFFF156E1550D8B45B
:101858000CD013C001F014C002F0F1EC0DF00250EE
:1018680004E1050E015CD8A003D0FFFF010E1FD0D4
:10187800FFFF18EC0FF0CE0E026E7E0E036EC4EC66
:101888000CF01550030B300F37EC0FF0860E026E7C
:101898007E0E036EC4EC0CF013C002F014C003F00B
:1018A800C4EC0CF00D0E37EC0FF076EC0BF0FFFFEC
:1018B8001200FFFFFFFF156E1550D8B40CD013C0EF
:1018C80001F014C002F0F1EC0DF0025004E1410EF9
:1018D800015CD8A003D0FFFF010E1FD0FFFF18EC5A
:1018E8000FF0CE0E026E7E0E036EC4EC0CF0155097
:1018F800030B300F37EC0FF0AC0E026E7F0E036E49
:10190800C4EC0CF013C002F014C003F0C4EC0CF0EB
:101918000D0E37EC0FF076EC0BF0FFFF1200FFFF17
:10192800FFFF16D0FFFF04C0F6FF05C0F7FFF86AF7
:10193800050EF76404D00800FFFFF55005D0F6CF78
:10194800E1FFF7CFE2FFE75023EC0DF0044A052A48
:10195800FFFF04C0F6FF05C0F7FFF86A050EF7643D
:1019680004D00800FFFFF55005D0F6CFE1FFF7CF10
:10197800E2FFE7500009D8B41200FFFFD3D7FFFFFA
:10198800FFFF16D0FFFF02C0F6FF03C0F7FFF86A9B
:10199800050EF76404D00800FFFFF55005D0F6CF18
:1019A800E1FFF7CFE2FFE75037EC0FF0024A032AD6
:1019B800FFFF02C0F6FF03C0F7FFF86A050EF764E1
:1019C80004D00800FFFFF55005D0F6CFE1FFF7CFB0
:1019D800E2FFE7500009D8B41200FFFFD3D7FFFF9A
:1019E800FFFF000E096E000E0A6E000E0B6E000E51
:1019F8000C6EFFFF01A008D00550092606500A22E8
:101A080007500B2208500C22FFFFD89005360636E7
:101A180007360836D89004320332023201320150B8
:101A2800021003100410D8A4E4D709C001F00AC0BA
:101A380002F00BC003F00CC004F01200FFFFFFFF20
:101A4800016EF2AE02D0010E026EFFFFF29E8A9680
:101A5800680EFFFFE82EFDD7000E036EFFFF01A002
:101A680002D08A8602D0FFFF8A96FFFFD890013203
:101A7800680EFFFFE82EFDD7032A070E0364EED792
:101A88008A86680EFFFFE82EFDD70250D8A4F28E92
:101A98001200FFFFFFFF41C001F042C002F0F1EC6D
:101AA8000DF0F50E015C010E0258D8A002D0010E0F
:101AB80018D0FFFF18EC0FF0540E026E7D0E036E67
:101AC800C4EC0CF041C002F042C003F0C4EC0CF0CE
:101AD8000D0E37EC0FF043C021F044C022F001ECAA
:101AE80009F0FFFF1200FFFFFFFF41C001F042C0F5
:101AF80002F0F1EC0DF0025004E1510E015CD8A0A7
:101B080002D0010E18D0FFFF18EC0FF0970E026EEE
:101B18007C0E036EC4EC0CF041C002F042C003F02E
:101B2800C4EC0CF00D0E37EC0FF043C021F044C0AC
:101B380022F001EC09F0FFFF1200FFFFFFFF035046
:101B48000410D8B41CD0010E056E05D0FFFFD89044
:101B580003360436052AFFFF04AEF8D7FFFF03500B
:101B6800015C04500258D8A004D00350015E045010
:101B7800025AFFFFD89004320332052EEFD7FFFF39
:101B880001C001F002C002F01200FFFFFFFF715018
:101B98006F1806E172507018D8A402D0FF0E1AD040
:101BA800FFFF000E7124D96E030E7220DA6EDF502B
:101BB800066E010E7124016E000E7220026E000E78
:101BC800046EC80E036EA2EC0DF001C071F002C0E5
:101BD80072F00650FFFF1200FFFFFFFF01C003F085
:101BE80002C004F003D0FFFF034A042AFFFF03C02A
:101BF800F6FF04C0F7FFF86A050EF76404D0080082
:101C0800FFFFF55005D0F6CFE1FFF7CFE2FFE75031
:101C18000009D8A4E8D70150035C016E02500458AB
:101C2800026E1200FFFFFFFF75507418D8A403D08E
:101C3800076808681AD0FFFF000E7524D96EDA6AA3
:101C4800020EDA22DF50096E010E7524016E026A57
:101C5800000E0222000E046E640E036E34EC0BF0CC
:101C68000150756E09C007F0086AFFFF1200FFFFF8
:101C7800FFFF136E1350D8A402D0010E1BD0FFFF34
:101C880018EC0FF0AA0E026E7E0E036EC4EC0CF078
:101C98001350030B300F37EC0FF00D0E37EC0FF02D
:101CA800080E786E4C0E796E010E7A6E000E7B6E01
:101CB80076EC0BF0FFFF1200FFFFFFFF036E0350EF
:101CC8007124016E000E7220026E6F50015C70501C
:101CD8000258D8A002D0FF0E10D0FFFF000E016EF0
:101CE800030E026E03500126000E022271500124D9
:101CF800D96E72500220DA6EDF50FFFF1200FFFF2C
:101D0800FFFFF2A418D00001BC51BD11BE11BF11D4
:101D1800D8B405D0BC07000EBD5BBE5BBF5BFFFF40
:101D2800010E6B26000E6C226D226E22F2947CC08E
:101D3800D6FF7DC0D7FFFFFF1200FFFFFFFF0BD0CC
:101D4800FFFFACA2FDD701C0D9FF02C0DAFFDF5008
:101D5800AD6E014A022AFFFF0306D8A00406032835
:101D6800EFE10428D8B41200FFFFEAD7FFFFFFFF16
:101D780071506F5C086E72507058096EC80E082456
:101D8800016E000E0920026E000E046EC80E036E6E
:101D9800A2EC0DF001C006F002C007F01200FFFF30
:101DA800FFFF755074C007F0086A075E000E085AF6
:101DB800640E0724016E000E0820026E000E046EE9
:101DC800640E036E34EC0BF001501200FFFFFFFFAE
:101DD800FC0E7D6E1A0E7C6EC00EF212810ED56E50
:101DE8007CC0D6FF7DC0D7FFF294F28A1200FFFFB5
:101DF800FFFF18EC0FF03C0E026E7E0E036EC4EC73
:101E08000CF041C021F042C022F001EC09F01200B0
:101E1800FFFFFFFF6BC001F06CC002F06DC003F064
:101E28006EC004F01200FFFFFFFF000E726E000E7E
:101E3800716E000E706E000E6F6E1200FFFFFFFFD6
:101E4800016E240EAC6E900EAB6E01C0AFFF120097
:101E5800FFFFFFFF8A869396F19CD00EF212F28E56
:101E6800F2921200FFFFFFFF016EFFFFACA2FDD749
:101E780001C0ADFF1200FFFFFFFFF9EC05F0FFFF07
:101E8800D3EC06F0FCD7FFFFC00EF2129D8A1200B9
:0C1E9800FFFFA00F0000D0070000FFFFBC
:10798E0000010000000A00000064000000E803008F
:10799E000010270000A086010040420F008096983C
:1079AE000000E1F50500CA9A3B10687474703A2F16
:1079BE002F6261636B656E642E7468696E676572A3
:1079CE002E696F2F76332F75736572732F4669721A
:1079DE006D77617265456E67696E656572732F644A
:1079EE006576696365732F53494D3830304C2F637C
:1079FE00616C6C6261636B2F646174613F6175745D
:107A0E00686F72697A6174696F6E3D65794A6862F2
:107A1E004763694F694A49557A49314E69497349F5
:107A2E006E523563434936496B705856434A392E68
:107A3E0065794A6C654841694F6A45324F44417ACF
:107A4E004E6A41304E7A4173496D6C6864434936D3
:107A5E004D5459344D444D314D7A49334D43776928
:107A6E00636D39735A534936496E567A5A58496975
:107A7E004C434A31633349694F694A4761584A74E6
:107A8E00643246795A5556755A326C755A5756792C
:107A9E0063794A392E354D5972505653346E4661BC
:107AAE00326B6F7533645632795A503453766F3366
:107ABE004A56315A6A3667414947545675693934C0
:107ACE000053797374656D20496E697469616C69D0
:107ADE007A6174696F6E20636F6D706C6574656426
:107AEE002E0D0D0053656E64696E67206D657373A0
:107AFE0061676520746F207468696E6765722E69A0
:107B0E006F2E2E2E0D0053797374656D20496E699C
:107B1E007469616C697A6174696F6E206661696CF3
:107B2E0065642E0D0D0053657474696E672048549C
:107B3E00545020636F6E66696775726174696F6EFB
:107B4E00732E2E2E0D004265617265722070726F5B
:107B5E0066696C65204163746976617465642C2076
:107B6E0049503A200053657474696E67204950205D
:107B7E00636F6E66696775726174696F6E732E2EB0
:107B8E002E0D0041542B4347514D494E3D25752C2A
:107B9E0025752C25752C25752C25752C25750D0018
:107BAE0041542B4347515245513D25752C25752C7B
:107BBE0025752C25752C25752C25750D0041542BFE
:107BCE0048545450504152413D22425245414B453A
:107BDE004E44222C256C640D0052656365697665F2
:107BEE00642064617461206C656E6774683A202548
:107BFE006C640D0041542B48545450504152413D39
:107C0E002250524F504F5254222C25750D00415484
:107C1E002B48545450504152413D2254494D454FEA
:107C2E005554222C25750D0041542B485454505058
:107C3E004152413D22425245414B222C256C640D4E
:107C4E000041542B48545450504152413D2252450C
:107C5E00444952222C25750D0041542B4854545042
:107C6E00504152413D225553455244415441222CDC
:107C7E00004854545020726573706F6E73652063A4
:107C8E006F64653A2025750D0041542B48545450AD
:107C9E00504152413D22434F4E54454E54222C00EA
:107CAE00456E67696E652054656D70657261747599
:107CBE007265202843290041542B485454504441A6
:107CCE0054413D256C642C256C640D0041542B48A9
:107CDE00545450524541443D256C642C256C640D22
:107CEE000041542B48545450504152413D22505261
:107CFE004F4950222C004D6F64656D20496E69749A
:107D0E0069616C697A65642E0D0D0041542B4347F1
:107D1E00444154413D22505050222C25750D0056A1
:107D2E00656869636C6520537065656420284D50E5
:107D3E0048290041542B48545450504152413D2241
:107D4E00434944222C0041542B4854545050415224
:107D5E00413D2255524C222C0041542B4854545034
:107D6E00414354494F4E3D25750D0041542B485407
:107D7E005450504152413D225541222C0053656EC4
:107D8E0064696E67206661696C65642E0D006170B2
:107D9E00706C69636174696F6E2F6A736F6E0041E8
:107DAE00542B485454505354415455533F0D004195
:107DBE00542B48545450474554484541443D004186
:107DCE00542B53415042523D342C25750D004154D5
:107DDE002B434750414444523D25750D0046756571
:107DEE006C204C6576656C202825290041542B4863
:107DFE0054545053434F4E540D0041542B4346554B
:107E0E004E3D312C310D0041542B4347434C4153D1
:107E1E00533F0D0041542B48545450484541440D96
:107E2E000041542B485454505445524D0D0041546A
:107E3E002B48545450494E49540D002C2250484F53
:107E4E004E454E554D222C0041542B434741545420
:107E5E003D300D0041542B43474154543D310D00EC
:107E6E0041542B4347455245503F0D0041542B4939
:107E7E0050523D256C640D002C22434F4E545950E8
:107E8E0045222C0041542B53415042523D302C0080
:107E9E0041542B43474143543D302C0041542B5306
:107EAE00415042523D312C0041542B4347414354E3
:107EBE003D312C0041542B53415042523D322C0047
:107ECE0041542B53415042523D332C0041542B43CD
:107EDE0047434C4153533D0041542B434744434F7A
:107EEE004E543D0041542B43475245473F0D0041F0
:107EFE00542B4347534D533F0D0041542B434741A1
:107F0E0043543F0D0041542B43474154543F0D0001
:107F1E0041542B4347455245503D0041542B434F4E
:107F2E0050533F0D0041542B43475245473D0041AE
:107F3E00542B4347534D533D0041542B43494D4918
:107F4E000D0041542B434E554D0D002C22524154E1
:107F5E0045222C002C2255534552222C00496E747A
:107F6E0065726E65740041542B474D490D004154A6
:107F7E002B474F490D0041542B474D4D0D00415499
:107F8E002B47534E0D0041542B4353510D0041547A
:107F9E002B474D520D002C22505744222C002C22E0
:107FAE0041504E222C00446F6E652E0D0D002C227A
:107FBE004950222C00446174613A200041544530EE
:107FCE000D00415426570D004154490D00333530F4
:107FDE003000475052530041540D0052504D004353
:107FEE004300434700333000353000333500420044
:017FFE000082
:020000040020DA
:08000000FFFFFFFFFFFFFFFF00
:020000040030CA
:0E000000FF220F0EFF0180FF0FC00FE00F4028
:00000001FF
