:020000040000FA
:0600000000F017EF00F014
:10000800FFFF6E82D9CF0CF0DACF0DF00EEC10F0B6
:10001800C2EC0AF059EC0EF00DC0DAFF0CC0D9FFA3
:100028006E921100FFFFA9EF0BF0FFFF000E1A6E92
:1000380014C0D9FF15C0DAFFDE50DE10D8A409D0ED
:100048000EC0D9FF0FC0DAFF7B0EDF6E010E1A6EED
:1000580025D0FFFF14C0D9FF15C0DAFFDECF16F098
:10006800DDCF17F016500E24D96E17500F20DA6E18
:100078002C0EDF6E14C0D9FF15C0DAFFDECF16F0E4
:10008800DDCF17F0010E1626000E172214C0D9FF77
:1000980015C0DAFF16C0DEFF17C0DDFFFFFF14C072
:1000A800D9FF15C0DAFFDECF16F0DDCF17F01A50F2
:1000B8000E24186E000E0F20196E16501824D96ED3
:1000C80017501920DA6E220EDF6E1FD0FFFF10C006
:1000D800F6FF11C0F7FF14C0D9FF15C0DAFFDECF55
:1000E80016F0DDCF17F01A500E24186E000E0F20F0
:1000F800196E16501824D96E17501920DA6E080098
:10010800FFFFF5CFDFFF104A112AFFFF14C0D9FF08
:1001180015C0DAFFDECF16F0DDCF17F0010E162678
:10012800000E172214C0D9FF15C0DAFF16C0DEFF73
:1001380017C0DDFF10C0F6FF11C0F7FF0800FFFF72
:10014800F5500009D8A4C2D714C0D9FF15C0DAFFEA
:10015800DECF16F0DDCF17F01A500E24186E000E01
:100168000F20196E16501824D96E17501920DA6E00
:10017800220EDF6E14C0D9FF15C0DAFFDECF16F0ED
:10018800DDCF17F0010E1626000E172214C0D9FF76
:1001980015C0DAFF16C0DEFF17C0DDFF1A50D8B44D
:1001A80025D014C0D9FF15C0DAFFDECF16F0DDCF99
:1001B80017F0010E1626000E172214C0D9FF15C01D
:1001C800DAFF16C0DEFF17C0DDFF14C0D9FF15C067
:1001D800DAFFDECF16F0DDCF17F016500E24D96EF9
:1001E80017500F20DA6E3A0EDF6E46D0FFFF14C0AC
:1001F800D9FF15C0DAFFDECF16F0DDCF17F01650A5
:100208000E24D96E17500F20DA6E3A0EDF6E1FD00B
:10021800FFFF12C0F6FF13C0F7FF14C0D9FF15C0C7
:10022800DAFFDECF16F0DDCF17F01A500E24186E65
:10023800000E0F20196E16501824D96E1750192069
:10024800DA6E0800FFFFF5CFDFFF124A132AFFFF1F
:1002580014C0D9FF15C0DAFFDECF16F0DDCF17F0D6
:10026800010E1626000E172214C0D9FF15C0DAFF9A
:1002780016C0DEFF17C0DDFFFFFF12C0F6FF13C078
:10028800F7FF0800FFFFF5500009D8A4C1D71A509E
:10029800D8B414D014C0D9FF15C0DAFFDECF16F0D9
:1002A800DDCF17F0010E1626000E172214C0D9FF55
:1002B80015C0DAFF16C0DEFF17C0DDFFFFFF14C050
:1002C800D9FF15C0DAFFDECF16F0DDCF17F01650D4
:1002D8000E24D96E17500F20DA6E7D0EDF6E14C013
:1002E800D9FF15C0DAFFDECF16F0DDCF17F00EC04C
:1002F80018F00FC019F01650182617501922010EC1
:100308001824D96E000E1920DA6E000EDF6E120066
:10031800FFFFFFFF415017E13E04E00E3F58040E77
:100328004058D8B00FD045500EE14204E00E435873
:10033800040E4458D8B006D042504310441045101B
:10034800D8A403D0FFFF010E21D1FFFF20EEC6F095
:100358001D0EDE6AE806FDE2C60E246E000E256E4E
:10036800DA0E266E7C0E276E3EC028F03FC029F0BC
:1003780040C02AF041C02BF042C02CF043C02DF001
:1003880044C02EF045C02FF0CDEC02F0AEEC10F0DA
:10039800C60E0F6E000E106EFAEC0DF0A3EC10F006
:1003A8000EC0E8F00FC0E9F010C0EAF011C0EBF0A1
:1003B8001DD0FFFFA3EC10F00001E8510E5C4A6E5F
:1003C800E9510F584B6EEA5110584C6EEB511158C9
:1003D8004D6E4A506A5C4B506B584C506C584D509F
:1003E8006D58D8B003D0FFFF050ED0D0FFFF45EC05
:1003F80010F0145004E1100E135CD8A0DAD7C60E22
:10040800176E000E186E28EC09F017C0ECF018C033
:10041800EDF00001EDBFE7D72B0EC619D8A492D096
:10042800480EC719D8A48ED0C60EEC25D96EDA6A44
:10043800000EDA22000EDF6EC60E1A6E000E1B6E5C
:100448000B0E1C6EEC051D6EBEEC07F01A504A6EC2
:100458001B504B6E4C6A4D6A46C0D9FF47C0DAFF45
:100468004AC0DEFF4BC0DEFF4CC0DEFF4DC0DEFFE2
:1004780046C0D9FF47C0DAFFDECFE4F0DECFE5F0B3
:10048800DECFE6F0DECFE7F017D0FFFF45EC10F047
:1004980013501410D8B409D054EC0FF03CC0D9FF55
:1004A8003DC0DAFFDF6E3C4A3D2AFFFF3CC0D9FF62
:1004B8003DC0DAFF000EDF6EFFFF0001E407000E0B
:1004C800E55BE65BE75BE429E0E1E529DEE1E629B7
:1004D800DCE1E729D8A4D9D7A3EC10F00EC0E8F0E6
:1004E8000FC0E9F010C0EAF011C0EBF01AD0FFFF1E
:1004F800A3EC10F00001E8510E5C4A6EE9510F5868
:100508004B6EEA5110584C6EEB5111584D6E4A50D3
:100518006A5C4B506B584C506C584D506D58D8A075
:1005280062D7FFFF45EC10F0145004E1060E135C8F
:10053800D8A0DDD7020EEBEC0FF04F0AD8A402D7F3
:10054800000E24D0FFFF2B0EC619D8A4FBD6450EEB
:10055800C919D8A4F7D6C60EEC25D96EDA6A000EEA
:10056800DA22000EDF6EC60E1A6E000E1B6E0C0E1F
:100578001C6EEC051D6EBEEC07F048C0D9FF49C0E3
:10058800DAFF1AC0DEFF1BC0DDFF020EFFFF1200FC
:10059800FFFFFFFF280E396E000E3A6E14D1FFFFE1
:1005A800250E3B18D8B409D024C0D9FF25C0DAFFDE
:1005B8003BC0DFFF244A252A06D1FFFF000E386E14
:1005C80006D0FFFF388803D0FFFF388C1CD0FFFF10
:1005D80026C0F6FF27C0F7FF264A272A0800FFFF94
:1005E800F5CF3BF03B50000AD8B4FBD0640AD8B42E
:1005F8000AD00D0AD8B407D0050AD8B4E2D7190A28
:10060800D8B4E2D7E0D0FFFF38BC30D038A80ED03D
:1006180039C0D9FF3AC0DAFFDECF34F0DECF35F08B
:10062800DECF36F0DECF37F0040E0FD0FFFF39C033
:10063800D9FF3AC0DAFFDECF34F0DDCF35F0000E57
:1006480035BEFF0E366E376E020EFFFF3926000EDE
:100658003A2237AE30D0030E3812371E361E351EFA
:10066800346C000E35223622372225D0FFFF38A8F9
:100678000ED039C0D9FF3AC0DAFFDECF34F0DECF72
:1006880035F0DECF36F0DECF37F0040E10D0FFFFA6
:1006980039C0D9FF3AC0DAFFDECF30F0DDCF31F014
:1006A80030C034F031C035F0366A376A020EFFFFC9
:1006B8003926000E3A22FFFF010E3B6EFFFF3B502A
:1006C800040D8F0EF324F66E790EF420F76E0900F0
:1006D800FFFFF550345C0900FFFFF550355809005D
:1006E800FFFFF55036580900FFFFF5503758D8A0DE
:1006F80005D03B2A0A0E3B18D8A4E0D7FFFF38C024
:1007080030F0030E3016D8B408D024C0D9FF25C065
:10071800DAFF2D0EDF6E244A252AFFFF3BC032F098
:10072800336A48D0FFFF32C030F033C031F0D89080
:1007380030363136D890303631368F0E3024F66E5A
:10074800790E3120F76E0900FFFFF5CF12F009008E
:10075800FFFFF5CF13F00900FFFFF5CF14F00A00F3
:10076800FFFFF5CF15F034C00EF035C00FF036C0DE
:1007780010F037C011F061EC0BF00EC01BF00FC089
:100788001CF010C01DF011C01EF00A0E1F6E000EE6
:10079800206E000E216E000E226EB1EC0CF01B5084
:1007A800300F3B6E24C0D9FF25C0DAFF3BC0DFFF06
:1007B800244A252AFFFF3206D8A033063228B2E1A0
:1007C8003328D8A4AFD7FFFF26C0F6FF27C0F7FF0E
:1007D800264A272A0800FFFFF5CF3BF03B50D8A454
:1007E800DED6FFFF24C0D9FF25C0DAFF000EDF6E7A
:1007F8001200FFFFFFFF0001E86F030E0001E8652C
:1008080003D0FFFF010E04D1FFFF20EEC6F01D0E3E
:10081800DE6AE806FDE2C60E246E000E256E670E3F
:10082800266E7D0E276EE8C046F0030E461646502B
:10083800286E296ACDEC02F0AEEC10F0C60E0F6EF1
:10084800000E106EFAEC0DF0A3EC10F00EC0E9F0FB
:100858000FC0EAF010C0EBF011C0ECF01DD0FFFFA4
:10086800A3EC10F00001E9510E5C466EEA510F58F6
:10087800476EEB511058486EEC511158496E46506E
:100888006A5C47506B5848506C5849506D58D8B0FE
:1008980003D0FFFF050EBCD0FFFF45EC10F014504D
:1008A80004E1060E135CD8A0DAD7C60E176E000E48
:1008B800186E28EC09F017C0EDF018C0EEF0000132
:1008C800EEBFE7D74F0EC619D8A482D0880E4024B1
:1008D800E46F130E4120E56F000E4220E66F000E14
:1008E8004320E76FA3EC10F00EC0E9F00FC0EAF068
:1008F80010C0EBF011C0ECF01AD0FFFFA3EC10F021
:100908000001E9510E5C466EEA510F58476EEB51F3
:100918001058486EEC511158496E4650E45D4750E6
:10092800E5594850E6594950E759D8A0B2D7FFFFD2
:1009380045EC10F0145004E1180E135CD8A0DDD774
:10094800C60E176E000E186E28EC09F017C0EDF0F1
:1009580018C0EEF02B0E0001C619D8A452D7C60E47
:10096800ED25D96EDA6A000EDA22000EDF6EC60EA9
:100978001A6E000E1B6E0F0E1C6E110E1D6EBEEC55
:1009880007F03CC0D9FF3DC0DAFF1AC0DEFF1BC02C
:10099800DDFFC60E1A6E000E1B6E130E1C6E0001D4
:1009A800ED051D6EBEEC07F01A50466E1B50476EE3
:1009B800486A496A3EC0D9FF3FC0DAFF46C0DEFF39
:1009C80047C0DEFF48C0DEFF49C0DEFF000E20D072
:1009D800FFFF2B0EC619D8A414D7C60EED25D96E65
:1009E800DA6A000EDA22000EDF6EC60E1A6E000EEC
:1009F8001B6E0C0E1C6EED051D6EBEEC07F044C0A0
:100A0800D9FF45C0DAFF1AC0DEFF1BC0DDFF020EAA
:100A1800FFFF1200FFFFFFFF3CC00EF03DC00FF0CC
:100A28007BEC0FF00EC0E4F00FC0E5F00001E66BC0
:100A3800E76B415006E13E04E00E3F58040E405873
:100A4800D8B0EBD0E75106E1E405E00EE559040E15
:100A5800E659D8B0E2D04550441006E1E80E425CB1
:100A6800030E4358D8A0D9D0455009E1C10E425CC5
:100A7800D40E4358010E4458D8B0CFD001D0CDD0B1
:100A8800FFFF20EEC6F01D0EDE6AE806FDE2C60E88
:100A9800246E000E256EC50E266E7C0E276E3EC097
:100AA80028F03FC029F040C02AF041C02BF042C0D6
:100AB8002CF043C02DF044C02EF045C02FF0CDECF3
:100AC80002F0AEEC10F0C60E0F6E000E106EFAECCF
:100AD8000DF0A3EC10F00EC0E8F00FC0E9F010C064
:100AE800EAF011C0EBF01AD0FFFFA3EC10F0000100
:100AF800E8510E5C486EE9510F58496EEA5110589A
:100B08004A6EEB5111584B6E48506A5C49506B580D
:100B18004A506C584B506D58D8A07FD0FFFF45EC19
:100B280010F0145004E1060E135CD8A0DDD7C60EF1
:100B3800176E000E186E28EC09F017C0ECF018C0FC
:100B4800EDF00001EDBF69D0440EC619D8A43ED01F
:100B5800AEEC10F03CC00EF03DC00FF03EC010F0FF
:100B68003FC011F02CEC10F0A3EC10F00EC0E8F030
:100B78000FC0E9F010C0EAF011C0EBF01AD0FFFF87
:100B8800A3EC10F00001E8510E5C486EE9510F58D3
:100B9800496EEA5110584A6EEB5111584B6E485045
:100BA8006A5C49506B584A506C584B506D58D8A0E5
:100BB80034D0FFFF45EC10F0145004E1060E135C2E
:100BC800D8A0DDD7020EEBEC0FF027D0FFFF4F0EB9
:100BD800C619D8B422D0450EC619D8B41ED02B0ECB
:100BE800C619D8A41AD0C60EEC25D96EDA6A000E3A
:100BF800DA22000EDF6EC60E1A6E000E1B6E0C0E89
:100C08001C6EEC051D6EBEEC07F046C0D9FF47C050
:100C1800DAFF1AC0DEFF1BC0DDFFFFFF1200FFFF77
:100C2800FFFFB9EC10F0800E3C6E250E3D6E000EF5
:100C38003E6E000E3F6E89EC08F00009D8A4C3D0C0
:100C4800040E116E7D0E126ECAEC0DF0730E116E4D
:100C58007B0E126ECAEC0DF0E00E206E7F0E216E38
:100C6800010E5EEC0DF00009D8A4ADD06B0E206E1D
:100C78007F0E216E010E94EC0DF00009D8A4A3D0CC
:100C8800010EC6EC0FF00009D8A49DD0B40E116E69
:100C98007F0E126ECAEC0DF0C60E316E000E326E6B
:100CA800010E41EC0AF0540E116E7B0E126ECAEC66
:100CB8000DF0C60E116E000E126ECAEC0DF0310E5C
:100CC800116E7B0E126ECAEC0DF0340E116E7B0E97
:100CD800126ECAEC0DF0DA0E4E6E000E4F6E86ECF8
:100CE80010F00009D8A46FD0B80E4E6E790E4F6E72
:100CF800DA0E506E000E516EB0EC0EF00009D8A45A
:100D080062D09C0E4E6E7D0E4F6EDA0E506E000E47
:100D1800516EDAEC0EF00009D8A455D0B40E116E5D
:100D28007F0E126ECAEC0DF08C0E0E6E020E0F6E58
:100D3800AE0E106E7C0E116EF30E126E7F0E136ED9
:100D4800C40E146E000E156E19EC00F08C0E0E6EAB
:100D5800020E0F6EE90E106E7F0E116EDB0E126E14
:100D68007F0E136EC40E146E000E156E19EC00F093
:100D78008C0E0E6E020E0F6E2D0E106E7D0E116E05
:100D8800F90E126E7F0E136EC40E146E000E156EE1
:100D980019EC00F08C0E0E6E020E0F6EEB0E106E3C
:100DA8007D0E116EF60E126E7F0E136EC40E146E4B
:100DB800000E156E19EC00F0CF0E116E7A0E126E41
:100DC800CAEC0DF007D0FFFF140E116E7B0E126EE9
:100DD800CAEC0DF0FFFF1200FFFFFFFF000E01013C
:100DE800F06F000EF26F000EF16F000EF46F000E40
:100DF800F36F000EF56F000EF66F000EF76F000E22
:100E0800F86F5EEC10F00009D8B405D0A1EC0FF033
:100E180014500101F06FFFFF310E0101F019D8A441
:100E2800A6D0F20E116E7A0E126ECAEC0DF08C0E70
:100E38003C6E020E3D6E010E0001C4254E6E000E82
:100E4800C5214F6E4EC03EF04FC03FF0406A416A28
:100E5800880E426E130E436E000E446E000E456EF1
:100E6800F30E466E010E476E0FEC05F0F10E3C6E68
:100E7800010E3D6EF50E3E6E010E3F6E100E406E79
:100E8800270E416E000E426E000E436EF30E446E46
:100E9800010E456E010EFEEC03F00009D8A460D0E7
:100EA800BE0E3C6E010E3D6E000E3E6E000E3F6E95
:100EB800000E406E000E416EF5C142F0F6C143F0DF
:100EC800F7C144F0F8C145F0F50E466E010E476EC5
:100ED800F30E486E010E496E8DEC01F00009D8A49E
:100EE80046D0DC0E246E010E256E7F0E266E7C0E1B
:100EF800276EF1C128F0F2C129F0CDEC02F0DC0E2A
:100F0800116E010E126ECAEC0DF0DC0E246E010E8D
:100F1800256EE70E266E7B0E276EF5C128F0F6C10A
:100F280029F0F7C12AF0F8C12BF0CDEC02F0DC0E65
:100F3800116E010E126ECAEC0DF0C30E116E7F0E0B
:100F4800126ECAEC0DF0DC0E116E010E126ECAECB8
:100F58000DF0310E116E7B0E126ECAEC0DF007D03B
:100F6800FFFF8B0E116E7D0E126ECAEC0DF0FFFFA7
:100F78001200FFFFFFFF000E236E000E246E000E0E
:100F8800256E000E266E010E296E000E2A6E000ECA
:100F98002B6E000E2C6E000E286E1CC02DF095D006
:100FA800FFFF2D501A24D96E000E1B20DA6E2F0E6B
:100FB800DF6472D02D501A24D96E000E1B20DA6E11
:100FC8003A0EDF6069D0010E286E000E276E1CD025
:100FD800FFFF29C00EF02AC00FF02BC010F02CC064
:100FE80011F00A0E126E000E136E000E146E000E33
:100FF800156E2AEC0EF00EC029F00FC02AF010C0B2
:101008002BF011C02CF0272AFFFF2D501DC01EF019
:101018001F6A1E5E000E1F5A2750206E216A1E503E
:10102800205C2150800A226E1F50800A2258D8A0C6
:10103800CFD72D501A24D96E000E1B20DA6E2F0E32
:10104800DF642AD02D501A24D96E000E1B20DA6EC8
:101058003A0EDF6021D02D501A24D96E000E1B20C5
:10106800DA6EDF501E6ED00E1E261E500E6E0F6AF0
:10107800106A116A29C012F02AC013F02BC014F0AC
:101088002CC015F02AEC0EF00E5023260F50242207
:101098001050252211502622FFFF010E296E000E46
:1010A8002A6E000E2B6E000E2C6E2850D8A409D084
:1010B800000E1A6E000E1B6E000E1C6E000E1D6ECA
:1010C80021D0FFFF000E286E2D2AFFFF1D501E6E37
:1010D8001F6A010E1E26000E1F222D50206E216A47
:1010E8001E50205C2150800A226E1F50800A225810
:1010F800D8A056D723C01AF024C01BF025C01CF076
:1011080026C01DF0FFFF1200FFFFFFFF3CC01BF0D1
:101118003DC01CF03EC01DF03FC01EF0EBEC0CF0D3
:10112800880E0E6E130E0F6E000E106E000E116EEE
:1011380025EC0DF0AEEC10F0E50E0F6E7F0E106E84
:10114800FAEC0DF0F40E0E6E010E0F6E000E106E1E
:10115800000E116E25EC0DF045EC10F013C04FF0A9
:1011680014C050F0505008E1060E4F5CD8B004D0BF
:1011780066D0FFFF54EC0FF0FFFF45EC10F0060EB1
:1011880013181410D8A4F5D7020EEBEC0FF04F0A81
:10119800D8A455D0CA0E0F6E7F0E106EFAEC0DF063
:1011A800F40E0E6E010E0F6E000E106E000E116E14
:1011B80025EC0DF0400E246E000E256E7A0E266E7C
:1011C8007E0E276E3CC028F03DC029F03EC02AF0B4
:1011D8003FC02BF0CDEC02F0AEEC10F0400E0F6EDD
:1011E800000E106EFAEC0DF0F40E0E6E010E0F6E7E
:1011F800000E106E000E116E25EC0DF0020EEBECD9
:101208000FF0516E4F0E5118D8A412D0D00E0F6E99
:101218007F0E106EFAEC0DF0640E0E6E000E0F6E5F
:10122800000E106E000E116E25EC0DF0000E09D0A8
:10123800FFFF450E5118D8A402D0040E02D0FFFFBC
:10124800050EFFFF1200FFFFFFFF000E1F6E45ECAB
:1012580010F013C01DF014C01EF01E5004E1060E5D
:101268001D5CD8A081D054EC0FF0246E0D0E24180C
:10127800D8A47AD054EC0FF0246E0A0E2418D8A4FF
:1012880073D0A3EC10F00EC020F00FC021F010C0F6
:1012980022F011C023F035D0FFFF2428D8B413D092
:1012A80017C0D9FF18C0DAFF24C0DFFF174A182A71
:1012B8001F2AA3EC10F00EC020F00FC021F010C0C0
:1012C80022F011C023F0FFFFA3EC10F020500E5CB9
:1012D800196E21500F581A6E225010581B6E235049
:1012E80011581C6E1C501B1006E1D10E195C070E1C
:1012F8001A58D8A006D0FFFFAEEC10F0176818688F
:1013080037D0FFFF54EC0FF0246E0D0E2418D8A42C
:10131800C3D7A3EC10F00EC020F00FC021F010C00E
:1013280022F011C023F018D0FFFFA3EC10F02050DA
:101338000E5C196E21500F581A6E225010581B6EF1
:10134800235011581C6E1C501B10D6E1D10E195C8D
:10135800070E1A58D8B0CFD7FFFF54EC0FF0246E01
:101368000A0E2418D8A4E0D7FFFF1FC017F0186A88
:10137800FFFF1200FFFFFFFFA3EC10F00EC048F0C4
:101388000FC049F010C04AF011C04BF01CD0FFFF4D
:10139800A3EC10F048500E5C306E49500F58316E77
:1013A8004A501058326E4B501158336E30506A5CA8
:1013B80031506B5832506C5833506D58D8B003D0F8
:1013C800FFFF050E57D0FFFF45EC10F0145004E165
:1013D800060E135CD8A0DBD720EE34F0130EDE6ABD
:1013E800E806FDE2340E176E000E186E28EC09F0C0
:1013F80017C04CF018C04DF04DBEE2D74F0E341850
:10140800D8A402D0000E36D0FFFF450E3418D8A459
:1014180002D0010E2FD0FFFF2B0E3418D8A41AD0FB
:10142800340E4C24D96EDA6A000EDA22000EDF6E12
:10143800340E1A6E000E1B6E0C0E1C6E4C041D6EC4
:10144800BEEC07F02EC0D9FF2FC0DAFF1AC0DEFFAE
:101458001BC0DDFFFFFF450E3718D8A402D0020ECF
:1014680009D0FFFF530E3718D8A402D0030E02D0BC
:10147800FFFF080EFFFF1200FFFFFFFF5A6E5A50D2
:10148800D8B479D0AEEC10F0C20E0F6E7E0E106E8E
:10149800FAEC0DF05A50030B300FCDEC10F00D0E96
:1014A800CDEC10F0A3EC10F00EC055F00FC056F0C4
:1014B80010C057F011C058F019D0FFFFA3EC10F07E
:1014C80055500E5C336E56500F58346E57501058A6
:1014D800356E58501158366E33506A5C34506B581C
:1014E80035506C5836506D58D8A045D0FFFF45ECA4
:1014F80010F0145004E1190E135CD8A0DED7370E93
:10150800256E000E266E12EC0BF0596E5950D8A4B9
:1015180032D0370E0E6E000E0F6E7BEC0FF00E04FD
:101528005B6E0D0E5C6E16D0FFFF370E5C24D96E15
:10153800DA6A000EDA225C503124336E000E322053
:10154800346EF30E3324E16EFF0E3420E26EDFCFEB
:10155800E7FF5C2AFFFF5B505C5CD8A0E5D75BC067
:1015680033F0F30E332633503124D96E000E322077
:10157800DA6E000EDF6EFFFF1200FFFFFFFFF2B210
:10158800F2A848D0000E096E81B044D0340EFFFF97
:10159800E82EFDD7000E0B6EFFFF650EFFFFE82E4D
:1015A800FDD781A00ED00BC007F0010E086E072AE8
:1015B80003D0FFFFD8900836FFFF072EFAD7085050
:1015C8000912FFFF0B2A070E0B64E6D7010E6824E9
:1015D800016E026A000E0222000E046E640E036E93
:1015E80030EC0CF001500A6E69500A18D8B40BD0D0
:1015F800000E6824D96EDA6A020EDA2209C0DFFF0B
:101608000AC068F002D0FFFF6780FFFF680EFFFF87
:10161800E82EFDD7FFFFF2921200FFFFFFFF25C063
:1016280017F026C018F028EC09F017C02FF018C0E2
:1016380030F030AE02D0050E3DD0FFFF2F503010F5
:10164800D8A403D0FFFF080E35D0FFFF2F50252464
:10165800D96E30502620DA6E000EDF6EA3EC10F043
:101668000EC02BF00FC02CF010C02DF011C02EF0C2
:1016780019D0FFFFA3EC10F02B500E5C276E2C50F6
:101688000F58286E2D501058296E2E5011582A6E5A
:1016980027506A5C28506B5829506C582A506D584E
:1016A800D8A0D0D7FFFF020EEBEC0FF04F0AD8A45A
:1016B800E0D7000EFFFF1200FFFFFFFF000E166EBF
:1016C800000E176E000E186E000E196E12501310D1
:1016D80014101510D8B42ED0010E1A6E07D0FFFFC3
:1016E800D89012361336143615361A2AFFFF15AE5F
:1016F800F6D7FFFFD8901636173618361936125017
:101708000E5C13500F581450105815501158D8A08B
:1017180009D012500E5E13500F5A1450105A15501B
:10172800115A1680FFFFD890153214321332123234
:101738001A2EDFD7FFFF16C00EF017C00FF018C023
:1017480010F019C011F01200FFFFBE0EF66E210E48
:10175800F76E000EF86E00EEEFF010EE04F00900E0
:10176800F5CFEEFFE550E150FAE1BA0EF66E210E24
:10177800F76E000EF86E00EE6AF010EE04F0090045
:10178800F5CFEEFFE550E150FAE103EE00F0C80EA8
:10179800EE6AE806FDE102EE00F0F00EEE6AE806F9
:1017A800FDE101EE00F0DC0EEE6AE806FDE100EE78
:1017B80080F0460EEE6AE806FDE100EE5DF00D0EE3
:1017C800EE6AE806FDE16E906E92000EF86E00017A
:1017D800D6EF10F0FFFF000E136E0FAE06D00E6CA2
:1017E8000F1ED8B00F2A010E136EFFFF11AE04D0E2
:1017F800106C111ED8B0112AFFFF10501110D8B468
:101808001CD0010E126E05D0FFFFD890103611368D
:10181800122AFFFF11AEF8D7FFFF10500E5C1150CF
:101828000F58D8A004D010500E5E11500F5AFFFF69
:10183800D89011321032122EEFD7FFFF1350D8B4C0
:1018480004D00E6C0F1ED8B00F2AFFFF0EC00EF08A
:101858000FC00FF01200FFFFFFFF000E066E02AE72
:1018680006D0016C021ED8B0022A010E066EFFFFD8
:1018780004AE04D0036C041ED8B0042AFFFF035042
:101888000410D8B41CD0010E056E05D0FFFFD89007
:1018980003360436052AFFFF04AEF8D7FFFF0350CE
:1018A800015C04500258D8A004D00350015E0450D3
:1018B800025AFFFFD89004320332052EEFD7FFFFFC
:1018C8000650D8B404D0016C021ED8B0022AFFFF1B
:1018D80001C001F002C002F01200FFFFFFFFA3ECFD
:1018E80010F00EC01BF00FC01CF010C01DF011C08E
:1018F8001EF01BD0FFFFA3EC10F01B500E5C176E00
:101908001C500F58186E1D501058196E1E50115843
:101918001A6E17506A5C18506B5819506C581A5048
:101928006D58D8B002D0050E15D0FFFF45EC10F069
:10193800145004E1060E135CD8A0DCD7020EEBECC1
:101948000FF01F6E4F0E1F18D8A402D0000E02D041
:10195800FFFF010EFFFF1200FFFFFFFF1F502010C7
:1019680021102210D8B428D0010E236E07D0FFFF13
:10197800D8901F36203621362236232AFFFF22AE82
:10198800F6D7FFFF1F501B5C20501C5821501D58D4
:1019980022501E58D8A008D01F501B5E20501C5A39
:1019A80021501D5A22501E5AFFFFD8902232213250
:1019B80020321F32232EE5D7FFFF1BC01BF01CC0AF
:1019C8001CF01DC01DF01EC01EF01200FFFFFFFF1F
:1019D800000E0E6E240E0F6EF40E106E000E116EB9
:1019E8001BC01FF01CC020F01DC021F01EC022F03B
:1019F800040EFFFFD8901F36203621362236E82EF7
:101A0800F8D71FC012F020C013F021C014F022C074
:101A180015F061EC0BF0FF0E0E24236EFF0E0F2065
:101A2800246EFF0E1020256EFF0E1120266E235007
:101A3800C3EC10F0C00EF2129D8A75EC10F0120083
:101A4800FFFFFFFF5DC016F05EC017F05FC018F023
:101A580060C019F025D0FFFF0E06000E0F5A105A6D
:101A6800115A010E1626000E172218221922FFFFFE
:101A78000E500F1010101110D8B412D016505D5C13
:101A8800126E17505E58136E18505F58146E195026
:101A98006058156E1250131014101510D8A4DBD707
:101AA800FFFF0E500F1010101110D8B41200FFFFD6
:101AB800DED7FFFFFFFF226E2250D8B40CD020C023
:101AC8000EF021C00FF07BEC0FF00F5004E1050E73
:101AD8000E5CD8A003D0FFFF010E1FD0FFFFAEECB5
:101AE80010F0CE0E0F6E7E0E106EFAEC0DF0225036
:101AF800030B300FCDEC10F0860E0F6E7E0E106EBD
:101B0800FAEC0DF020C00FF021C010F0FAEC0DF047
:101B18000D0ECDEC10F072EC0CF0FFFF1200FFFF81
:101B2800FFFF226E2250D8B40CD020C00EF021C086
:101B38000FF07BEC0FF00F5004E1410E0E5CD8A0C3
:101B480003D0FFFF010E1FD0FFFFAEEC10F0CE0E4A
:101B58000F6E7E0E106EFAEC0DF02250030B300F54
:101B6800CDEC10F0AC0E0F6E7F0E106EFAEC0DF08F
:101B780020C00FF021C010F0FAEC0DF00D0ECDECE6
:101B880010F072EC0CF0FFFF1200FFFFFFFF16D001
:101B9800FFFF11C0F6FF12C0F7FFF86A050EF764E1
:101BA80004D00800FFFFF55005D0F6CFE1FFF7CFCE
:101BB800E2FFE75085EC0EF0114A122AFFFF11C030
:101BC800F6FF12C0F7FFF86A050EF76404D00800A4
:101BD800FFFFF55005D0F6CFE1FFF7CFE2FFE75062
:101BE8000009D8B41200FFFFD3D7FFFFFFFF16D0BC
:101BF800FFFF0FC0F6FF10C0F7FFF86A050EF76485
:101C080004D00800FFFFF55005D0F6CFE1FFF7CF6D
:101C1800E2FFE750CDEC10F00F4A102AFFFF0FC08B
:101C2800F6FF10C0F7FFF86A050EF76404D0080045
:101C3800FFFFF55005D0F6CFE1FFF7CFE2FFE75001
:101C48000009D8B41200FFFFD3D7FFFFFFFF000E33
:101C5800166E000E176E000E186E000E196EFFFF3E
:101C68000EA008D01250162613501722145018220E
:101C780015501922FFFFD890123613361436153630
:101C8800D890113210320F320E320E500F10101041
:101C98001110D8A4E4D716C00EF017C00FF018C062
:101CA80010F019C011F01200FFFFFFFF9EAA26D006
:101CB800010E6124016E000E6220026E000E046E99
:101CC800C80E036E2CEC0FF001C007F002C008F03C
:101CD8006350071804E164500818D8B40FD097EC83
:101CE80010F0066E000E6124D96E030E6220DA6EC3
:101CF80006C0DFFF07C061F008C062F0FFFF1200F6
:101D0800FFFFFFFF0E6EF2AE02D0010E0F6EFFFF57
:101D1800F29E8A96680EFFFFE82EFDD7000E106E21
:101D2800FFFF0EA002D08A8602D0FFFF8A96FFFF2F
:101D3800D8900E32680EFFFFE82EFDD7102A070E46
:101D48001064EED78A86680EFFFFE82EFDD70F5085
:101D5800D8A4F28E1200FFFFFFFF4EC00EF04FC056
:101D68000FF07BEC0FF0F50E0E5C010E0F58D8A0AB
:101D780002D0010E18D0FFFFAEEC10F0540E0F6E1B
:101D88007D0E106EFAEC0DF04EC00FF04FC010F043
:101D9800FAEC0DF00D0ECDEC10F050C02EF051C045
:101DA8002FF0BFEC09F0FFFF1200FFFFFFFF4EC04E
:101DB8000EF04FC00FF07BEC0FF00F5004E1510E06
:101DC8000E5CD8A002D0010E18D0FFFFAEEC10F0C8
:101DD800970E0F6E7C0E106EFAEC0DF04EC00FF0E1
:101DE8004FC010F0FAEC0DF00D0ECDEC10F050C015
:101DF8002EF051C02FF0BFEC09F0FFFF1200FFFFDB
:101E0800FFFF10501110D8B41CD0010E126E05D06F
:101E1800FFFFD89010361136122AFFFF11AEF8D7FF
:101E2800FFFF10500E5C11500F58D8A004D010506E
:101E38000E5E11500F5AFFFFD89011321032122E39
:101E4800EFD7FFFF0EC00EF00FC00FF01200FFFF1C
:101E5800FFFF03500410D8B41CD0010E056E05D046
:101E6800FFFFD89003360436052AFFFF04AEF8D7E3
:101E7800FFFF0350015C04500258D8A004D003505F
:101E8800015E0450025AFFFFD89004320332052E37
:101E9800EFD7FFFF01C001F002C002F01200FFFF00
:101EA800FFFF6350611806E164506218D8A402D09D
:101EB800FF0E1AD0FFFF000E6324D96E030E6420B4
:101EC800DA6EDF50136E010E63240E6E000E64206E
:101ED8000F6E000E116EC80E106E04EC0FF00EC0DF
:101EE80063F00FC064F01350FFFF1200FFFFFFFF05
:101EF8000EC010F00FC011F003D0FFFF104A112AD6
:101F0800FFFF10C0F6FF11C0F7FFF86A050EF7646F
:101F180004D00800FFFFF55005D0F6CFE1FFF7CF5A
:101F2800E2FFE7500009D8A4E8D70E50105C0E6E07
:101F38000F5011580F6E1200FFFFFFFF695068180D
:101F4800D8A403D0146815681AD0FFFF000E6924BE
:101F5800D96EDA6A020EDA22DF50166E010E692493
:101F68000E6E0F6A000E0F22000E116E640E106EB8
:101F7800EEEC0BF00E50696E16C014F0156AFFFFF8
:101F88001200FFFFFFFF206E2050D8A402D0010EE0
:101F98001BD0FFFFAEEC10F0AA0E0F6E7E0E106E77
:101FA800FAEC0DF02050030B300FCDEC10F00D0EB5
:101FB800CDEC10F0080E6A6E4C0E6B6E010E6C6E56
:101FC800000E6D6E72EC0CF0FFFF1200FFFFFFFFBA
:101FD800106E105063240E6E000E64200F6E615058
:101FE8000E5C62500F58D8A002D0FF0E10D0FFFF31
:101FF800000E0E6E030E0F6E10500E26000E0F22EE
:1020080063500E24D96E64500F20DA6EDF50FFFF44
:102018001200FFFFFFFFF2A418D00001BC51BD1150
:10202800BE11BF11D8B405D0BC07000EBD5BBE5BA6
:10203800BF5BFFFF010E5D26000E5E225F2260225D
:10204800F29465C0D6FF66C0D7FFFFFF1200FFFFFE
:10205800FFFF0BD0FFFFACA2FDD70EC0D9FF0FC00A
:10206800DAFFDF50AD6E0E4A0F2AFFFF1006D8A028
:1020780011061028EFE11128D8B41200FFFFEAD7A3
:10208800FFFFFFFF6350615C156E64506258166E67
:10209800C80E15240E6E000E16200F6E000E116E5F
:1020A800C80E106E04EC0FF00EC013F00FC014F041
:1020B8001200FFFFFFFF695068C014F0156A145E34
:1020C800000E155A640E14240E6E000E15200F6EA5
:1020D800000E116E640E106EEEEC0BF00E50120036
:1020E800FFFFFFFFFC0E666E1A0E656EC00EF21241
:1020F800810ED56E65C0D6FF66C0D7FFF294F28A0E
:102108001200FFFFFFFFAEEC10F03C0E0F6E7E0ECC
:10211800106EFAEC0DF04EC02EF04FC02FF0BFEC51
:1021280009F01200FFFFFFFFAECF01F0AB50ABA2EA
:1021380002D0AB50AB98FFFF01501200FFFFFFFF2A
:102148005DC00EF05EC00FF05FC010F060C011F00F
:102158001200FFFFFFFF000E646E000E636E000E9C
:10216800626E000E616E1200FFFFFFFF8A86939673
:10217800F19CD00EF212F28EF2921200FFFFFFFFD6
:102188000E6E240EAC6E900EAB6E0EC0AFFF12003A
:10219800FFFFFFFF0E6EFFFFACA2FDD70EC0ADFF25
:1021A8001200FFFFFFFF14EC06F0FFFFF1EC06F052
:0C21B800FCD7A00F0000D0070000FFFFC4
:10798E0000010000000A00000064000000E803008F
:10799E000010270000A086010040420F008096983C
:1079AE000000E1F50500CA9A3B10687474703A2F16
:1079BE002F6261636B656E642E7468696E676572A3
:1079CE002E696F2F76332F75736572732F4669721A
:1079DE006D77617265456E67696E656572732F644A
:1079EE006576696365732F53494D3830304C2F637C
:1079FE00616C6C6261636B2F646174613F6175745D
:107A0E00686F72697A6174696F6E3D65794A6862F2
:107A1E004763694F694A49557A49314E69497349F5
:107A2E006E523563434936496B705856434A392E68
:107A3E0065794A6C654841694F6A45324F44417ACF
:107A4E004E6A41304E7A4173496D6C6864434936D3
:107A5E004D5459344D444D314D7A49334D43776928
:107A6E00636D39735A534936496E567A5A58496975
:107A7E004C434A31633349694F694A4761584A74E6
:107A8E00643246795A5556755A326C755A5756792C
:107A9E0063794A392E354D5972505653346E4661BC
:107AAE00326B6F7533645632795A503453766F3366
:107ABE004A56315A6A3667414947545675693934C0
:107ACE000053797374656D20496E697469616C69D0
:107ADE007A6174696F6E20636F6D706C6574656426
:107AEE002E0D0D0053656E64696E67206D657373A0
:107AFE0061676520746F207468696E6765722E69A0
:107B0E006F2E2E2E0D0053797374656D20496E699C
:107B1E007469616C697A6174696F6E206661696CF3
:107B2E0065642E0D0D0053657474696E672048549C
:107B3E00545020636F6E66696775726174696F6EFB
:107B4E00732E2E2E0D004265617265722070726F5B
:107B5E0066696C65204163746976617465642C2076
:107B6E0049503A200053657474696E67204950205D
:107B7E00636F6E66696775726174696F6E732E2EB0
:107B8E002E0D0041542B4347514D494E3D25752C2A
:107B9E0025752C25752C25752C25752C25750D0018
:107BAE0041542B4347515245513D25752C25752C7B
:107BBE0025752C25752C25752C25750D0041542BFE
:107BCE0048545450504152413D22425245414B453A
:107BDE004E44222C256C640D0052656365697665F2
:107BEE00642064617461206C656E6774683A202548
:107BFE006C640D0041542B48545450504152413D39
:107C0E002250524F504F5254222C25750D00415484
:107C1E002B48545450504152413D2254494D454FEA
:107C2E005554222C25750D0041542B485454505058
:107C3E004152413D22425245414B222C256C640D4E
:107C4E000041542B48545450504152413D2252450C
:107C5E00444952222C25750D0041542B4854545042
:107C6E00504152413D225553455244415441222CDC
:107C7E00004854545020726573706F6E73652063A4
:107C8E006F64653A2025750D0041542B48545450AD
:107C9E00504152413D22434F4E54454E54222C00EA
:107CAE00456E67696E652054656D70657261747599
:107CBE007265202843290041542B485454504441A6
:107CCE0054413D256C642C256C640D0041542B48A9
:107CDE00545450524541443D256C642C256C640D22
:107CEE000041542B48545450504152413D22505261
:107CFE004F4950222C004D6F64656D20496E69749A
:107D0E0069616C697A65642E0D0D0041542B4347F1
:107D1E00444154413D22505050222C25750D0056A1
:107D2E00656869636C6520537065656420284D50E5
:107D3E0048290041542B48545450504152413D2241
:107D4E00434944222C0041542B4854545050415224
:107D5E00413D2255524C222C0041542B4854545034
:107D6E00414354494F4E3D25750D0041542B485407
:107D7E005450504152413D225541222C0053656EC4
:107D8E0064696E67206661696C65642E0D006170B2
:107D9E00706C69636174696F6E2F6A736F6E0041E8
:107DAE00542B485454505354415455533F0D004195
:107DBE00542B48545450474554484541443D004186
:107DCE00542B53415042523D342C25750D004154D5
:107DDE002B434750414444523D25750D0046756571
:107DEE006C204C6576656C202825290041542B4863
:107DFE0054545053434F4E540D0041542B4346554B
:107E0E004E3D312C310D0041542B4347434C4153D1
:107E1E00533F0D0041542B48545450484541440D96
:107E2E000041542B485454505445524D0D0041546A
:107E3E002B48545450494E49540D002C2250484F53
:107E4E004E454E554D222C0041542B434741545420
:107E5E003D300D0041542B43474154543D310D00EC
:107E6E0041542B4347455245503F0D0041542B4939
:107E7E0050523D256C640D002C22434F4E545950E8
:107E8E0045222C0041542B53415042523D302C0080
:107E9E0041542B43474143543D302C0041542B5306
:107EAE00415042523D312C0041542B4347414354E3
:107EBE003D312C0041542B53415042523D322C0047
:107ECE0041542B53415042523D332C0041542B43CD
:107EDE0047434C4153533D0041542B434744434F7A
:107EEE004E543D0041542B43475245473F0D0041F0
:107EFE00542B4347534D533F0D0041542B434741A1
:107F0E0043543F0D0041542B43474154543F0D0001
:107F1E0041542B4347455245503D0041542B434F4E
:107F2E0050533F0D0041542B43475245473D0041AE
:107F3E00542B4347534D533D0041542B43494D4918
:107F4E000D0041542B434E554D0D002C22524154E1
:107F5E0045222C002C2255534552222C00496E747A
:107F6E0065726E65740041542B474D490D004154A6
:107F7E002B474F490D0041542B474D4D0D00415499
:107F8E002B47534E0D0041542B4353510D0041547A
:107F9E002B474D520D002C22505744222C002C22E0
:107FAE0041504E222C00446F6E652E0D0D002C227A
:107FBE004950222C00446174613A200041544530EE
:107FCE000D00415426570D004154490D00333530F4
:107FDE003000475052530041540D0052504D004353
:107FEE004300434700333000353000333500420044
:017FFE000082
:020000040020DA
:08000000FFFFFFFFFFFFFFFF00
:020000040030CA
:0E000000FF220F0EFF0180FF0FC00FE00F4028
:00000001FF
